:020000040800F2
:100000006006002099010008A1010008A301000872
:10001000A5010008A7010008A901000800000000D0
:10002000000000000000000000000000AB0100081C
:10003000AD01000800000000AF010008B101000898
:10004000B3010008B3010008B3010008B3010008C0
:10005000B3010008B3010008B3010008B3010008B0
:10006000B3010008B3010008B3010008B3010008A0
:10007000B3010008B3010008B3010008B301000890
:10008000B3010008B3010008B3010008B301000880
:10009000B3010008B3010008B3010008B301000870
:1000A000B3010008B3010008B3010008B301000860
:1000B000B3010008B3010008B3010008B301000850
:1000C000B3010008B3010008B3010008B301000840
:1000D000B3010008B3010008B3010008B301000830
:1000E000B3010008B3010008B301000800F002F8F2
:1000F00000F042F814A696E8000CB244B344DA4586
:1001000001D100F039F8BAE80F000FA696E83000E8
:10011000A5EB040504EB0607AAEB0704A7F101070A
:100120004FEA15154FEA3414A4F10104AC4201D38F
:1001300000F022F813F0010F18BFFB1A43F001037F
:1001400000F001F8DBE71847400700005007000007
:10015000704700000023002400250026103A28BF25
:1001600078C1FBD8520728BF30C148BF0B60704729
:100170001FB51FBD10B510BD00F031F81146FFF7D7
:10018000F7FF00F06BFB00F04FF803B4FFF7F2FF4E
:1001900003BC00F057F800000948804709480047B1
:1001A000FEE7FEE7FEE7FEE7FEE7FEE7FEE7FEE727
:1001B000FEE7FEE704480549054A064B7047000084
:1001C00099060008ED00000860000020600600208D
:1001D000600200206002002070477047704775463B
:1001E00000F02CF8AE4605006946534620F00700A3
:1001F000854618B020B5FFF7DDFFBDE820404FF081
:1002000000064FF000074FF000084FF0000BAC461F
:10021000ACE8C009ACE8C009ACE8C009ACE8C0096A
:1002200021F007018D46704710B50446AFF30080FA
:100230002046BDE81040FFF7A8BF00000048704707
:100240000000002001491820ABBEFEE72600020096
:100250007047000088B00790069100200590049038
:1002600003900290019000900698C07800F00F0073
:1002700005900698C078C006002806D5FFE70698C6
:100280008178059808430590FFE7069800780028D4
:100290004BD0FFE707980068019000200390FFE72C
:1002A000039807283DD8FFE7039901208840029072
:1002B00006980088029908400490049802998842A0
:1002C0002AD1FFE703988000029002990F2088400E
:1002D000009000990198884301900598029900FACE
:1002E00001F10198084301900698C078282806D1AA
:1002F000FFE7039901208840079948610BE00698C1
:10030000C078482806D1FFE7039901208840079963
:100310000861FFE7FFE7FFE7FFE70398013003907D
:10032000BEE7019807990860FFE706980088B0F5D6
:10033000807F50DBFFE70798406801900020039022
:10034000FFE70398072842D8FFE7039800F1080168
:100350000120884002900698008802990840049085
:100360000498029988422DD1FFE7039880000290FB
:1003700002990F20884000900099019888430190CD
:100380000598029900FA01F1019808430190069836
:10039000C078282808D1FFE7039800F10801012060
:1003A000884007994861FFE70698C078482808D137
:1003B000FFE7039800F108010120884007990861D0
:1003C000FFE7FFE7FFE7039801300390B9E70198E3
:1003D00007994860FFE708B07047000086B00590B5
:1003E0008DF81310002003900290019000909DF86A
:1003F00017000006002806D5FFE71C20C4F2010004
:100400000068019005E00420C4F20100006801903A
:10041000FFE70598C0F303400090BDF81400039077
:10042000059800F44010B0F5401F0CD1FFE701988B
:1004300020F0706001900421C4F20101086820F0EE
:100440007060086023E09DF81600C00600280DD5F6
:10045000FFE70099032088400290029901988843A1
:100460000190019840F0706001900FE00398059AA8
:100470006FF00F0101EA524100FA01F1019888433F
:100480000190019840F070600190FFE7FFE79DF850
:10049000130060B1FFE70398059A6FF00F0101EABE
:1004A000524100FA01F1019808430190FFE79DF8DD
:1004B00017000006002806D5FFE701981C21C4F2AA
:1004C0000101086005E001980421C4F201010860FF
:1004D000FFE706B07047000082B00190ADF802104F
:1004E000BDF802000199086102B0704748F294110A
:1004F000C4F221210120086048F29011C4F22121A8
:10050000086048F28C11C4F2212108607047000095
:1005100048F29411C4F221210020086048F29011A1
:10052000C4F22121086048F28C11C4F22121086034
:100530007047000082B001908DF803109DF8030011
:1005400048B1FFE7019A41F21801C4F202010868BC
:100550001043086008E0019A41F21801C4F2020158
:10056000086890430860FFE702B0704780B500F06C
:1005700001F880BD84B000200390029041F2000198
:10058000C4F20201086840F480300860FFE741F2DD
:100590000000C4F20200006800F4003002900398EA
:1005A00001300390FFE702990020019039B9FFE77D
:1005B0000398B0F5A06018BF01200190FFE70198F3
:1005C000C0070028E3D1FFE741F20000C4F20200B7
:1005D00000688003002803D5FFE70120029002E0B5
:1005E00000200290FFE70298012851D1FFE742F274
:1005F0000001C4F20201086840F0100008600868B9
:1006000020F007000860086840F00200086041F22E
:100610000401C4F2020100910868086008680860DB
:10062000086840F480600860086820F47C10086066
:10063000086840F4E810086041F20001C4F20201C9
:10064000086840F080700860FFE741F20000C4F2E3
:10065000020000688001002801D4FFE7F5E741F2BD
:100660000401C4F20201086820F003000860086871
:1006700040F002000860FFE741F20400C4F202000B
:10068000006800F00C00082801D0FFE7F4E700E064
:10069000FFE704B07047000080B541F20002C4F2E9
:1006A0000202106840F00100106041F20401C4F23F
:1006B000020108680023CFF6FF03184008601068A5
:1006C0004FF6FF73CFF6F66318401060106820F401
:1006D00080201060086820F4FE00086041F20801E4
:1006E000C4F202014FF41F000860FFF73FFF4EF60F
:1006F0000851CEF200014FF00060086080BD00009C
:1007000081B0ADF80200FFE7BDF80200411EADF870
:10071000021040B3FFE74EF21001CEF200010020BC
:1007200008604EF21403CEF2000341F63F12C0F20D
:1007300001021A604EF21802CEF20002106005208B
:100740000860FFE74EF21000CEF200000068C00320
:10075000002801D4FFE7F5E74EF21001CEF20001C8
:1007600000200860D0E701B07047000080B584B079
:100770000C2001210091FFF7DDFE0320ADF80C00F5
:10078000482001908DF80F0040F60000C4F20100EF
:1007900003A90291FFF75EFD00990820FFF7CAFE4A
:1007A000019802990222ADF80C208DF80F0040F656
:1007B0000040C4F20100FFF74DFD04B080BD000011
:1007C00080B588B01020049001210691FFF7B2FE99
:1007D00004984FF400510291ADF81C1003210391CD
:1007E0008DF81E108DF81F0041F20000C4F20100C8
:1007F000019007A90591FFF72DFD01980299FFF7D8
:100800006BFE06990920FFF795FE069940F200203D
:10081000C0F23000FFF7E2FD039A049805993823EF
:10082000ADF81C308DF81E208DF81F0040F60040FA
:10083000C4F20100FFF70EFD069848F29411C4F2CD
:100840002121086048F29011C4F22121086048F289
:100850008C11C4F22121086008B080BD80B582B03F
:1008600000200190FFF782FFFFF7AAFFFFE7FFF7E5
:100870003DFE4FF4FA700090FFF742FFFFF748FE8D
:100880000098FFF73DFFF2E79808000800000020FD
:0808900060060000540100089D
:04000005080000ED02
:00000001FF
