:020000040800F2
:1000000040340020E10100083D11000839110008CA
:100010003B110008D10B00089D22000800000000E1
:10002000000000000000000000000000490100087E
:10003000910E0008000000008D010008A11E0008BC
:10004000FB010008FB010008FB010008FB010008A0
:10005000FB010008FB010008490F0008850F00089C
:10006000FB010008FB010008BD0F0008D50B0008CC
:10007000FB010008FB010008FB010008FB01000870
:10008000FB010008FB010008FB010008FB01000860
:10009000FB010008FB010008FB010008FB01000850
:1000A000FB010008391F0008FB010008FB010008E4
:1000B000691F0008951F0008C51F0008FB01000804
:1000C000FB010008FB010008FB010008FB01000820
:1000D000FB01000815200008FB010008FB010008D7
:1000E000FB010008FB010008FB010008FB01000800
:1000F000FB010008FB010008FB010008FB010008F0
:10010000FB010008FB010008FB010008FB010008DF
:10011000FB010008FB010008FB010008FB010008CF
:10012000FB010008FB010008FB010008FB010008BF
:10013000DFF810D000F060FC0048004741330008B1
:10014000AFF3008040340020224B19680868B0E803
:10015000F00F80F30988BFF36F8F4FF0000080F33A
:1001600011884EF00D0E7047000000000648006830
:10017000006880F3088862B661B6BFF34F8FBFF3A3
:100180006F8F00DF00BF00BF08ED00E0EFF30980D4
:10019000BFF36F8F0F4B1A6820E9F00F106008B59E
:1001A0004FF0500080F31188BFF34F8FBFF36F8F74
:1001B00004F036FD4FF0000080F31188BDE80840E0
:1001C00019680868B0E8F00F80F30988BFF36F8FF3
:1001D000704700BF70000020EFF3058070470000FB
:1001E0000648804706480047FEE7FEE7FEE7FEE7D1
:1001F000FEE7FEE7FEE7FEE7FEE7FEE7E91E000892
:100200003101000840EA01039B0703D009E008C957
:10021000121F08C0042AFAD203E011F8013B00F8CB
:10022000013B521EF9D27047D2B201E000F8012B17
:10023000491EFBD270470022F6E710B513460A4666
:1002400004461946FFF7F0FF204610BD10B5002206
:1002500000E0521C835C8C5CA34201D1002BF8D1DE
:10026000D8B2E1B2401A10BD80EA010210B502F026
:100270000043400022D04A001FD0010E01EB126162
:10028000C0F35600C2F3560240F4000042F40002EC
:10029000A0FB022000047F39140400D0401C50EA67
:1002A000124001D44000491EC2B20C0604EBD0102B
:1002B000401C4008802A02D003E0002010BD20F03E
:1002C0000100002900DA0020184310BD30B480EA94
:1002D000010202F0004530F0004221F0004013D04E
:1002E00090B1C30DD40DC2F31601C0F31600E41A89
:1002F00041F4000140F400027D34914201D3641CBA
:1003000000E04900002C02DA30BC002070474FF4B6
:1003100000000023914201D3891A034340084FEAA9
:100320004101F7D151B1914202D14FF0004105E0B6
:1003300002D24FF0010101E06FF0010103EBC45064
:10034000284430BC00F0ACBA2DE9FE4F804681EA6B
:100350000300C00F0C46009021F0004123F000453F
:10036000B8EB0200A94105D24046214690461C4602
:100370000B46024623F00040104347D0270DC7F339
:100380000A00C3F30A510290401A019040286BDA28
:10039000C3F3130040F4801B0098924620B1002361
:1003A000D2EB030A63EB0B0B01985946C0F14002F4
:1003B000504600F044FA06460D4650465946019A0A
:1003C00000F05CFA10EB08006141002487EA11524A
:1003D00084EAE7731A4340D0009A62B3019A012A73
:1003E0004FEA075215DC001B61EB02014FF000429F
:1003F00002EA0752CDE90042001C41F58011324665
:100400002B4600F093FA03B0BDE8F08F404621463A
:10041000F9E7001B61EB0201001C41F58013001895
:100420005B412018A2F5001747EB030140EAD570A5
:10043000B6196D4111E06D084FEA360645EAC07500
:100440004FEA0752001B61EB0201001C41F58011CD
:1004500049084FEA30000019514132462B4603B09B
:10046000BDE8F04F00F053BA00980122400000238D
:10047000D0EB020263EBE073009821464FEAE07490
:10048000B8EB000061EB0401E9E783F000435BE7B0
:1004900081F0004158E72DE9FE4F81EA030404F0A2
:1004A000004421F0004100944FF0000B23F0004382
:1004B00050EA01045ED052EA03045BD0C3F30A544D
:1004C000C1F30A552C44A4F2F3340194A0FB025466
:1004D000C1F3130141F48011C3F3130343F48013F8
:1004E00001FB024400FB034E840A970A44EA81544C
:1004F00047EA8357A4FB076802958D0A05FB078529
:100500004FEA932C04FB0C542705029D4FEA065832
:1005100047EA1637B5EB08056EEB070C870E920E0F
:1005200047EA811742EA8312A7FB0201B6EB0B01EF
:1005300064EB00042B0D43EA0C335E1844EB1C50B3
:10054000DA465146E7FB0201C5F313044FEA0B33C9
:1005500043EA14534FEA0432019C43EA0603A4F130
:100560000C040294009CCDE900B400F0DFF903B064
:10057000BDE8F08F00200146F9E72DE9F04D81EA52
:10058000030404F0004B21F0004514464FF0000A2C
:1005900023F0004150EA050220D054EA01021DD0A8
:1005A000C5F30A570246C5F31303C1F31300C1F3A1
:1005B0000A5640F4801543F48013A7EB0608101B7D
:1005C000D64608F2FD3873EB050002D308F10108A6
:1005D00001E092185B41B8F1000F03DA00200146F8
:1005E000BDE8F08D00204FF48011064684460EE0F1
:1005F000171B73EB050705D3121B63EB05030643BB
:100600004CEA010C49084FEA300092185B4150EA6D
:100610000107EDD152EA030012D082EA040083EA16
:100620000501084305D0101BAB4106D2012200236F
:1006300006E000224FF0004302E06FF00102531089
:100640001AEB06004CEB085110EB0A0041EB0B01D2
:10065000BDE8F04D00F05BB996230022114600F092
:1006600028B90EB5C10F80EAE0700844CA0700211E
:1006700040F233438DE80E000A460B4600F056F96F
:1006800003B000BD0EB540F2334102910021CDE927
:1006900000110A460B4600F049F903B000BD70B5E1
:1006A000C1F30A5201F000450024C1F3130140F2E6
:1006B000FF3341F480119A4201DA002070BD40F20C
:1006C00033439A42A2F2334203DC524200F0C6F8AE
:1006D00000E090402C43F1D0404270BD00F0004259
:1006E00030F000400AD0C10D01F56071C0F3160072
:1006F00042EA0151C20840071143704700200146F9
:100700007047000030B5041E71F1000404DB4FF0A7
:100710000044404264EB0101141E73F1000405DB48
:100720001C464FF00043524263EB04038B4208BF68
:10073000824230BD30B5041E71F1000404DB4FF07D
:100740000044404264EB0101141E73F1000405DB18
:100750001C464FF00043524263EB0403994208BF2A
:10076000904230BD01F0004330B421F0004150EA26
:10077000010206D00A0DA2F56072C1F31301002A2E
:1007800002DC30BC00207047440F44EAC104C100C1
:10079000E01830BC00EBC25000F082B8002801DB4A
:1007A000C0F10040002901DBC1F1004188427047DF
:1007B00030B50B46014600202022012409E021FA31
:1007C00002F59D4205D303FA02F5491B04FA02F52E
:1007D0002844151EA2F10102F1DC30BD2DE9F05FC5
:1007E0000546002092469B468846064681464024A0
:1007F0001BE0284641464746224600F02FF8534664
:100800005A46C01A914110D311461846224600F0AC
:1008100016F82D1A67EB01084F46224601200021E9
:1008200000F00DF817EB00094E41201EA4F1010461
:10083000DFDC484631462A464346BDE8F09F202A81
:1008400004DB203A00FA02F1002070479140C2F127
:10085000200320FA03F3194390407047202A04DB59
:10086000203A21FA02F00021704721FA02F3D04029
:10087000C2F120029140084319467047202A06DB46
:10088000CB17203A41FA02F043EAE07306E041FA5E
:1008900002F3D040C2F1200291400843194670474C
:1008A0000029A8BF7047401C490008BF20F0010084
:1008B000704710B4B0FA80FC00FA0CF050EA010462
:1008C00004BF10BC704749B1CCF1200421FA04F4F4
:1008D00011FA0CF118BF012121430843A3EB0C01CD
:1008E000CB1D4FEA00614FEA102042BF002010BC30
:1008F000704700EBC35010440029A4BF10BC7047E0
:10090000401C490008BF20F0010010BC704710B522
:10091000141E73F1000408DA401C41F10001921822
:100920005B411A4301D120F0010010BD2DE9F04DCB
:1009300092469B4611B1B1FA81F202E0B0FA80F220
:1009400020329046FFF77BFF04460F4640EA0A003C
:1009500041EA0B0153465A46084313D0114653EA65
:10096000010019D0C8F140025046FFF777FF054655
:100970000E46504659464246FFF761FF084305D0F0
:10098000012004E020463946BDE8F08D00200543F3
:1009900046EAE0762C4337430A986305E40AA0EB65
:1009A00008000022FD0A44EA47540A3002D500201C
:1009B0000146E9E7010510196941DDE9084500191B
:1009C0006941BDE8F04DA2E7C1F30A52C1F313013A
:1009D00040F2FF3341F480119A4202DA00200146CE
:1009E000704740F233439A42A2F2334202DC524251
:1009F000FFF734BFFFF723BF064C074D06E0E06862
:100A000040F0010394E8070098471034AC42F6D355
:100A1000FFF792FB786500089865000870B521F033
:100A2000004303430CD0C1F30A550024D5EB040561
:100A300064EB0403D617AD1AB34102DB0020014674
:100A400070BD201841EB025170BD002904D08168AF
:100A500041F0010181607047816821F001018160EE
:100A60007047002904D0816841F48071816070472B
:100A7000816821F480718160704701460020896897
:100A8000490700D501207047014600208968090701
:100A900000D501207047000010B542680E4B1A4087
:100AA0000C790B6842EA04221343436082680B4BC3
:100AB0001A40D1E9024323434C7942EA44021343EA
:100AC0008360C26A22F47002097C491EC9B242EAFC
:100AD0000151C16210BD0000FFFEF0FFFDF7F1FF04
:100AE00070B5072609290AD9C568A1F10A0404EBE3
:100AF0004404A640B543A3401D43C56007E0056913
:100B000001EB4104A640B543A3401D4305611F23EB
:100B1000072A09D2446B521E02EB820293409C4387
:100B200091400C43446370BD0D2A09D2046BD21F5F
:100B300002EB820293409C4391400C43046370BDDE
:100B4000C46A0D3A02EB820293409C4391400C43ED
:100B5000C46270BD816841F008018160704700295E
:100B600004D0816841F4A00181607047816821F45C
:100B7000A00181607047816841F004018160704785
:100B800010B5094C0021204600F054F804212046FD
:100B900000F013F90121204600F04CF8BDE81040A8
:100BA00001210248FFF7DBBF08000240002401409A
:100BB0000649002804D0086840F400000860704727
:100BC000086820F400000860704700000824014015
:100BD000FEE7000010B5022000F0B6F8002815D09E
:100BE000012000F01BF80A48006800280ED00949CF
:100BF00004F0A8F907480068002807D006494FF01C
:100C000080500860BFF34F8FBFF36F8F10BD00009F
:100C1000240000202C00002004ED00E0C10002D5DB
:100C20000249086070470249486070470404024066
:100C300000000240002904D0016841F00101016078
:100C4000704701684FF6FE72114001607047000066
:100C500001684FF6FE7211400160002101604160A1
:100C60008160C1603649364A0839904204D14868EB
:100C700040F00F0048607047314A1432904204D16E
:100C8000486840F0F000486070472D4A2832904292
:100C900004D1486840F4706048607047284A3C328C
:100CA000904204D1486840F4704048607047244A3C
:100CB0005032904204D1486840F470204860704738
:100CC0001F4A6432904204D1486840F47000486082
:100CD00070471B4A7832904204D1486840F07060F7
:100CE00048607047174A111F904204D1086840F0CD
:100CF0000F0008607047134A1432904204D108680C
:100D000040F0F000086070470E4A2832904204D14B
:100D1000086840F47060086070470A4A3C329042AC
:100D200004D1086840F4704008607047054A5032AA
:100D30009042FAD1086840F47020086070470000C3
:100D4000080002400804024002460020D10002D5FB
:100D50000449096801E004490968114200D00120F2
:100D6000704700000004024000000240002A03D047
:100D700002680A430260704702688A430260704753
:100D800030B5026847F6F0739A430C6A8B682343C8
:100D9000D1E904452C4323438C692343CC69234385
:100DA0004C6A23438C6A234313430360CA6842603E
:100DB0000A6882604968C16030BD416070470000C8
:100DC0002DE9F041274D284E284C2888FFF75AFC82
:100DD00002460B464FF033302549FFF7CEFBFFF7B5
:100DE000C1FC0746E0616888FFF736FC3946FFF72B
:100DF0003BFA3146FFF76AFA1E49FFF735FA1E49FA
:100E0000FFF764FAE0603946FFF7C8FC01D2E069F9
:100E1000E060A888FFF720FCE1690F46FFF724FA9D
:100E20003146FFF753FA2061FFF758FC134A144B81
:100E3000FFF72EFB134A144BFFF79FFB0022134BC7
:100E4000FFF782FAFFF78EFCA061E888FFF704FC49
:100E50003946FFF709FA3146FFF738FA6061BDE815
:100E6000F08100003000002000F07F4538000020B5
:100E70003333B34000000C430000C842E17A14AEA3
:100E800047E1F63F22FDF675E09C713F00003940D6
:100E9000704700007CB52B4CB4F90200B42806DB87
:100EA000A0F5B471A180C0F5B470E08002E0A0802C
:100EB0004042E08020780026012558B3B4F90400B0
:100EC000CDE9000600230A221C21752000F0BAF9A2
:100ED000CDE90065B4F906300A223521752000F00D
:100EE000B1F96088401D60806078401C6070B4F982
:100EF0000200B0F5B47F24DB6580207880F001002B
:100F0000207002B02E23BDE87040322212216B20E7
:100F100000F066B9B4F90400CDE9000500230A2207
:100F20001C21752000F08EF900960196B4F9063068
:100F30000A223521752000F085F96088401D608007
:100F4000D2E77CBD3800002070B5012000F05AF8CF
:100F5000002812D0094C00202060094D284602F0DC
:100F600011F9284602F00EF9284602F00BF901208B
:100F70002060BDE8704000F03FB870BD9481214210
:100F80004054890070B5022000F03CF8002810D0D1
:100F9000084C00202060084D284602F0F3F828464F
:100FA00002F0F0F801202060BDE87040022000F05F
:100FB00023B870BD908121424054890010B51020A3
:100FC00000F020F800280FD0084C002020600848CE
:100FD00002F0D8F8074802F0D5F801202060BDE8FB
:100FE0001040102000F008B810BD00008C81214294
:100FF000404B4C0040420F00014908607047000020
:101000001404014001460020054A12680A40044BBE
:1010100014331B680B4202D0002A00D00120704715
:10102000000401402DE9F0410022CC7804F00F03C8
:10103000E40601D58C7823430C784FF00F0714F0A9
:10104000FF0F4FF0010C1CD005680CFA02F40E885B
:101050002640A64211D1960007FA06F825EA0805AF
:1010600003FA06F848EA0505CE78282E02D0482E65
:1010700002D002E0446100E00461521C082AE4D37B
:1010800005600A88FF2A1ED94568002202F1080679
:101090000CFA06F40E882640A64210D1960007FAF4
:1010A00006F825EA080503FA06F848EA0505CE78A9
:1010B000282E00D14461CE78482E00D10461521C04
:1010C000082AE3D34560BDE8F0810000F0B5154C77
:1010D000002801DAE36900E06368C0F30346420DCB
:1010E000120185B2C0F301579540032F07D0C20209
:1010F0000CD50322B240934343F0706209E023F021
:101100007062636823F07063636002E0AB4343F096
:10111000706201B12A43002801DAE261F0BD626029
:10112000F0BD00000000014001617047002A01D0BD
:101130000161704741617047FEE7FEE770470000BC
:1011400070B50F23C27801260178002A1ED0144AF8
:10115000126802F4E062C2F5E062120AC2F104040D
:10116000D3404578A54082781A402A43120101F104
:10117000E02181F80024007800F01F018E40400932
:10118000800000F1E020C0F8006170BD01F01F0098
:1011900086404809800000F1E020C0F8806170BD01
:1011A0000CED00E002490843024908607047000066
:1011B0000000FA050CED00E010B50021074C0022FC
:1011C000002004EBC1131A54401CC0B28028FAD38B
:1011D000491CC9B20829F3D310BD0000F400002057
:1011E0002DE9F0417F2828D83F2926D88418802C63
:1011F00002D9C0F18002D2B2CC18402C02D9C1F180
:101200004003DBB201250E4E871801EB030812E004
:10121000044601F0070205FA02FCCA0806EBC212F6
:1012200005E0135D23EA0C031355641CE4B2A742E6
:10123000F7D8491CC9B28845EAD8BDE8F08100005A
:10124000F40000202DE9FF5F07460E46C2F1010AB7
:1012500000251446214628460E9B039A00F0E2FA28
:1012600020B13019C1B2F8B200F0B6F9604201B253
:101270004FF00009884648460E9B039A00F0D2FAC8
:1012800020B1301BC1B2F8B200F0A6F929462046C1
:101290000E9B039A00F0C6FA20B13819F1B2C0B221
:1012A00000F09AF9494640460E9B039A00F0BAFABC
:1012B00020B1381BF1B2C0B200F08EF90F9888B996
:1012C000DEE0414600200E9B039A00F0ABFA28B105
:1012D00006EB0800C1B2384600F07EF908F10108BB
:1012E0000FFA88F8A045ECDBCAE06D1C2DB2BAF10C
:1012F000000F05DA0AEB4500401C0FFA80FA07E000
:10130000641E24B2281B0AEB4000401C0FFA80FA2E
:10131000214628460E9B039A00F084FA28B1301922
:10132000C1B27819C0B200F057F9294620460E9B89
:10133000039A00F077FA28B17019C1B23819C0B217
:1013400000F04AF9604201B2684200B28946834621
:101350000E9B039A00F066FA28B1301BC1B2781BCD
:10136000C0B200F039F9594648460E9B039A00F086
:1013700059FA28B1701BC1B2381BC0B200F02CF969
:10138000494628460E9B039A00F04CFA28B1301BC0
:10139000C1B27819C0B200F01FF9594620460E9B21
:1013A000039A00F03FFA28B1701BC1B23819C0B2DD
:1013B00000F012F9214658460E9B039A00F032FACB
:1013C00028B13019C1B2781BC0B200F005F9294626
:1013D00048460E9B039A00F025FA28B17019C1B255
:1013E000381BC0B200F0F8F80F98E8B3C8461FE009
:1013F000414628460E9B039A00F014FA30B106EBE2
:101400000800C1B27819C0B200F0E6F8414658466B
:101410000E9B039A00F006FA30B106EB0800C1B249
:10142000781BC0B200F0D8F808F101080FFA88F86C
:10143000A045DDDBD84621E0414648460E9B039A95
:1014400000F0F0F930B106EB0800C1B2381BC0B2B1
:1014500000F0C2F8414620460E9B039A00F0E2F9E4
:1014600040B106EB080000E00AE0C1B23819C0B292
:1014700000F0B2F808F101080FFA88F8A845DBDBA4
:10148000A542FFF632AFBDE8FF9F2DE9F04F0446BD
:101490000D4616461F464FF00008C146BD420FD10B
:1014A000B44209DD20463446064605E0E9B2E0B222
:1014B00000F092F8641C24B2B442F7DDBDE8F08F6E
:1014C000B4420ED1BD4209DD28463D46074605E03F
:1014D000E9B2E0B200F080F86D1C2DB2BD42F7DD3C
:1014E000ECE705DD20463446064628463D460746DD
:1014F000BD4205DD684205B2784207B24FF00108EF
:10150000781B311B884207DD20462C4605463046B5
:101510003E4607464FF00109311B781B42000FFA87
:1015200082FA421A52000FFA82FBC1EB400007B266
:10153000B8F1000F08D0B9F1000F05D06042C1B278
:10154000E8B200F049F843E0B8F1000F05D0684276
:10155000C1B2E0B200F040F83AE0B9F1000F04D0B7
:10156000E1B2E8B200F038F832E0E9B2E0B200F0FF
:1015700033F82DE0641C24B2002F03DA07EB0A00D5
:1015800007B204E06D1C2DB207EB0B0007B2B8F1F7
:10159000000F08D0B9F1000F05D06042C1B2E8B227
:1015A00000F01AF814E0B8F1000F05D06842C1B29B
:1015B000E0B200F011F80BE0B9F1000F04D0E1B295
:1015C000E8B200F009F803E0E9B2E0B200F004F894
:1015D000B442CFDB72E7000010B57F280CD83F295A
:1015E0000AD8064ACB0802EBC31201F00704135CC9
:1015F0000121A1400B43135410BD0000F400002052
:101600002DE9F04785B00D46DDE90D9A0F990646A4
:101610001446984630462F46ADF80C60ADF80E40A3
:10162000ADF81090ADF80450ADF80680ADF808A004
:10163000002919D0844200D22046814500D2484674
:10164000B84500D24746BA4500D25746B44200D901
:101650002646B14500D94E46A84500D94546AA457B
:1016600000D9554680462AE0434622462946304660
:10167000FFF70BFF53464A4629463046FFF705FF62
:1016800053464A4641462046FFF7FFFE05B0BDE8F7
:10169000F0873C460DE0434601AA03A903200094CD
:1016A00000F03DFA18B121464046FFF795FF641C53
:1016B000E4B2AC42EFD908F1010808F0FF08B045E8
:1016C000E7D9E3E738B500214FF47A720020401CD7
:1016D0009042FCD3491C9142F8D30121082000F02C
:1016E00017FB14208DF8030003208DF802004FF43F
:1016F0008070ADF80000094C69462046FFF792FC67
:101700006115ADF8001069462046FFF78BFC0120FB
:1017100000F0C6F9012000F0D1F938BD000C0140FD
:1017200070B505460024802626FA04F0284000D033
:10173000012000F0C3F9012000F0B2F9002000F010
:10174000AFF9641CE4B2082CEED3012000F0A8F934
:10175000BDE87040002000F0A3B910B5012000F0F2
:10176000ADF9012000F09CF9002000F0A7F9BDE8D8
:101770001040002000F094B910B5002000F09EF950
:10178000012000F08DF9BDE81040012000F096B96D
:1017900010B5FFF797FFAE2000F098F9D52000F0C4
:1017A00095F9802000F092F9A82000F08FF93F20F1
:1017B00000F08CF9D32000F089F9002000F086F9C0
:1017C000402000F083F9A12000F080F9C82000F04B
:1017D0007DF9DA2000F07AF9122000F077F9812003
:1017E00000F074F9CF2000F071F9D92000F06EF903
:1017F000F12000F06BF9DB2000F068F9302000F0F8
:1018000065F9A42000F062F9A62000F05FF98D20B0
:1018100000F05CF9142000F059F9BDE81040AF2049
:1018200000F054B92DE9F041884616461F46FEF7F0
:1018300018FF04460D464046FEF713FF22462B468E
:1018400001F0D2FB0D4A0E4BFEF797FE00220D4B26
:10185000FEF721FEFEF723FF00B2BE4206DAB042D9
:101860000ADBB84208DC0120BDE8F081B04201DAB1
:10187000B84201DC0120F7E70020F5E71F85EB51B6
:10188000B81E0940008066400FB470B588B00546A8
:101890000E46144610AA68460F9900F011FD234623
:1018A0006A463146284600F0D1F808B070BC5DF8B1
:1018B00014FB10B5891CCCB240F0B00000F006F962
:1018C000102040EA141000F001F904F00F00BDE808
:1018D000104000F0FBB8000008B5203A082B0CD0EF
:1018E000062B09D1094B02EB420203EB42020092A4
:1018F0000823062200F056F808BD054B03EB021240
:1019000000921023082200F04DF808BD2060000866
:10191000305A00082DE9FC5F81468B46924600252F
:10192000002001900026DFF8748030E001A94855BE
:101930006D1CEDB2022D28D30025002406E03846A8
:1019400001A9FEF783FC68B1641CE4B2C4EBC400D7
:1019500000EB800000EB080711A13846FEF776FC8B
:101960000028ECD1C4EBC40000EB80004044C01C54
:101970000090701C0F2101EB500009EB00101023A8
:10198000C0B21A46594600F00DF8761CF6B21AF8A5
:1019900006000028CAD1BDE8FC9F00005A6200087A
:1019A000000000002DE9F84F8246894690461C460B
:1019B000BAF17F0F45D8B9F13F0F42D823464246CE
:1019C00049465046FFF70CFC0025641EE01704EB67
:1019D0005070012202EBE000DFF86CC009F0070153
:1019E00000902BE0002325E00AEB03047F2C23D892
:1019F00005EBD906072E24D80A9805FB08F71844EA
:101A00000CEBC61217F800E012F804B00EFA01FE53
:101A10004BEA0E0B02F804B0761C072E08D80CEB2C
:101A2000C612385C165DC1F10807F840064316552A
:101A30005B1CDBB24345D7D36D1CEDB20098A842C6
:101A4000D0DCBDE8F88F0000F40000202DE9F04163
:101A50000546884616461F46002408E004FB07504A
:101A6000C0B23B464146FFF737FF641CE4B2325D2B
:101A7000002AF3D1BDE8F08170B50024074D0021A4
:101A80002046FFF716FF05EBC410802100F02FF869
:101A9000641CE4B2082CF2D370BD0000F4000020F6
:101AA00010B502464FF480710348FFF73FFBBDE8D5
:101AB0001040012001F078BB000C014002464FF4B9
:101AC00000710148FFF732BB000C014010B504461D
:101AD000FFF743FE7820FFF723FE0020FFF720FEEC
:101AE0002046FFF71DFEBDE81040FFF745BE70B56C
:101AF00005460E46FFF731FE7820FFF711FE402025
:101B0000FFF70EFE002404E0285DFFF709FE641CC9
:101B1000E4B2B442F8D3BDE87040FFF72DBE2DE922
:101B2000F047089F00260024451E29E032F914C022
:101B3000BC4502DD4FF0010901E04FF0000932F928
:101B40001580B84502DD4FF0010A01E04FF0000AB0
:101B5000D14512D031F9159031F91450A7EB0C0A88
:101B6000A9EB050909FB0AF9A8EB0C0C99FBFCFC95
:101B700065449D4201DD46B100262546641C24B221
:101B80008442D3DBF0B2BDE8F0870126F5E7000020
:101B90001CB52D4C2089401C2081E069FEF79EFD7C
:101BA000CDE9000129A3062214210020FFF76CFED5
:101BB000E068FEF793FDCDE9000128A306221E216F
:101BC0000020FFF761FEA069FEF788FDCDE9000166
:101BD00026A3062228210020FFF756FE6069FEF7A3
:101BE0007DFDCDE9000125A3062232210020FFF76B
:101BF0004BFE20890A2826D900202081FFF73CFFD0
:101C0000E069FEF76BFD02460B4620A000F048FBA2
:101C1000E068FEF763FD02460B4621A000F040FBA2
:101C2000A069FEF75BFD02460B4623A000F038FBDF
:101C30006069FEF753FD02B00246BDE810400B4656
:101C400021A000F02DBB1CBD3800002050726F7722
:101C5000657220203A252B352E3366006164315F92
:101C6000726573313A252B352E33660074656D70BD
:101C7000202020203A252B352E3366006164315F09
:101C8000726573323A252B352E33660061645F56D8
:101C9000726566203D2025302E33660D0A00000057
:101CA00061645F726573756C7431203D2025302E40
:101CB00033660D0A0000000074656D70203D20251C
:101CC000302E33660D0A000061645F726573756CB7
:101CD0007432203D2025302E33660D0A00000000AE
:101CE000034A516821F440410143516070470000AC
:101CF00000100240054A002903D051690143516197
:101D000070475169814351617047000000100240E3
:101D1000054A002903D09169014391617047916997
:101D200081439161704700000010024010B5264ABF
:101D3000516801F00C01254B002927D0042927D038
:101D4000082927D00360516801F0F0010909204BF0
:101D50005C5C0168E1404160546804F4E064240A7A
:101D60001C5D21FA04F48460546804F46054E40AAD
:101D70001B5DD940C160526802F44042920B144B83
:101D80001B1F9A5CB1FBF2F1016110BD0360DAE741
:101D90000360D8E7516801F47011536803F480338D
:101DA000022404EB914133B153689B0307D5094BDF
:101DB00059430160C7E7074B59430160C3E7034B31
:101DC00059430160BFE700000010024000127A0092
:101DD0005D00002000093D0010B5044602E0641CCF
:101DE00002F052FA20780028F9D110BDAFF300803C
:101DF0000CB50022019200922748016841F480311D
:101E000001604FF4A063016801F400310091019971
:101E1000491C0191009911B901999942F3D10168C6
:101E2000890302D50121009100E000920099012967
:101E300030D11A490A6842F010020A600A6822F09A
:101E400007020A600A6842F002020A6041684160C3
:101E500041684160416841F480614160416821F41A
:101E60007C114160416841F4E8114160016841F032
:101E70008071016001688901FCD5416821F003018E
:101E80004160416841F0020141604168C1F3810154
:101E90000229FAD10CBD00000010024000200240CF
:101EA00010B503F0ADFA012803D0BDE8104002F0F0
:101EB0007DBF10BD4FF0E02100220A610A6922F0C7
:101EC00004020A61074AC00810804FF47A72504336
:101ED0000A6942F002020A614861086940F00100A3
:101EE000086170472800002010B50F48016841F0D4
:101EF0000101016041680D4A1140416001680C4ACE
:101F000011400160016821F480210160416821F4E1
:101F1000FE0141604FF41F018160FFF767FF054933
:101F20004FF00060086010BD001002400000FFF894
:101F3000FFFFF6FE08ED00E010B5094C0121204638
:101F400000F05BF800280AD00648016881F0010122
:101F500001602046BDE81040012100F04BB810BDE3
:101F6000002C0140BC01214210B501218C07204604
:101F700000F043F800280AD00548017881F00101FB
:101F800001702046BDE81040012100F033B810BDBB
:101F90005800002010B5094C0121204600F02DF812
:101FA00000280AD00648016881F00101016020463E
:101FB000BDE81040012100F01DB810BD0004004034
:101FC0008C81214210B5094C0121204600F015F802
:101FD00000280AD00648016881F00101016020460E
:101FE000BDE81040012100F005B810BD0008004018
:101FF00090812142C9430182704702460020138A22
:102000000B4092890A40002B02D0002A00D0012008
:102010007047000070B5174C40F225552946204600
:1020200000F047F8002824D0204600F0DBF8124AE0
:10203000012804D0032810D0422814D106E0D2F899
:10204000940180F00100C2F894010CE0D2F89001F4
:1020500080F00100C2F8900105E0D2F88C0180F018
:102060000100C2F88C0129462046BDE8704000F00E
:1020700005B870BD003801400080214240F66A1268
:102080000A0A01219140C94301807047002904D008
:10209000818941F4005181817047818921F4005187
:1020A000818170470246002012880A4200D0012038
:1020B000704770B5002440F66A12C1F3421301F074
:1020C0001F05012606FA05F2012B0CD0022B0DD0BC
:1020D000838A1340090A8E40008830400BB100B15A
:1020E0000124204670BD83891340F3E7038A13401F
:1020F000F0E710B540F66A13C1F3421301F01F0474
:102100000121A140012B07D0022B07D014303AB196
:1021100002680A43026010BD0C30F8E71030F6E7A1
:1021200002688A43026010BD30B585B004460D4692
:10213000208A4CF6FF710840E98801432182A0897A
:102140004EF6F3110840A9882A8911436A8902438F
:102150001143A181A08A4FF6FF410840A98901439C
:10216000A1826846FFF7E2FD1D48844201D1039831
:1021700000E00298A189090408D500EBC00101EB39
:10218000001029684900B0FBF1F007E000EBC00146
:1021900001EB001029688900B0FBF1F06422B0FB6C
:1021A000F2F109010B096FF018056B4300EB830096
:1021B000A3891D044FF0320307D503EBC000B0FB29
:1021C000F2F000F00700084306E003EB0010B0FB5C
:1021D000F2F000F00F000843208105B030BD000090
:1021E000003801408088C0F308007047C1F308013F
:1021F0008180704730B587B0044601210520FFF784
:1022000087FD01218803FFF783FD4FF48060ADF85F
:10221000080004208DF80B001E4D02A92846FEF789
:1022200001FF6815ADF8080003208DF80A0018209A
:102230008DF80B0002A92846FEF7F4FE0394002453
:10224000ADF81040ADF81240ADF81440ADF81840AC
:102250000C20ADF81600104D03A92846FFF764FFC7
:1022600025218DF804108DF805408DF806400121D8
:102270008DF8071001A8FEF763FF012240F22551F7
:102280002846FFF736FF01212846FFF7FFFE07B07B
:1022900030BD00000008014000380140FEE70000AA
:1022A0000FB4054B10B503A9044A029800F068F971
:1022B00010BC5DF814FB0000E1310008EC000020C8
:1022C00037B514460846064B6A46214600F058F9D1
:1022D00004466946002000F0D6FC20463EBD0000C2
:1022E000872C0008490050EAC12018BF04204A0D7D
:1022F00018BF40F0010040F2FF72B2EB515F08BF1F
:1023000040F00200012808BF052070472DE9F04188
:102310004F1E00EBC7010446D1E9000115461E46D9
:1023200037F006020DD02A463346FEF7B4F87F1E7A
:1023300004EBC703D3E90023FEF706F837F00602E3
:10234000F1D1022F25D0042F13D0062F18BFBDE8DE
:10235000F0812A463346FEF79EF8D4E90A23FDF7BA
:10236000F3FF2A463346FEF796F8D4E90823FDF733
:10237000EBFF2A463346FEF78EF8D4E90623FDF735
:10238000E3FF2A463346FEF786F8D4E90423FDF737
:10239000DBFF2A463346FEF77EF8D4E90223FDF739
:1023A000D3FF2A463346FEF776F8D4E90023BDE88A
:1023B000F041FDF7C9BF0122FEF730BBFDF7C4BFF6
:1023C000024A00201107FEF729BB000001FDFFFFB4
:1023D00002E008C8121F08C1002AFAD170477047EE
:1023E000002001E001C1121F002AFBD1704700004C
:1023F0000149086070470000F00000202DE9FF5FF0
:1024000082B00021DDE90430020DDDF840B0034365
:1024100018D044F61050A2F2FF324243151411981E
:1024200001281FD0A5EB0B00401C5FEA000A4FF00B
:1024300000064E4FDFF83891B046504615D5CAF128
:10244000000413E0119801244AA3012801D16FEA86
:102450000B010298119AC0E90031C0E9024206B0AE
:10246000BDE8F09FCBF10000DFE704460021404AC1
:10247000491842EB0450CDE9001012E0E00707D004
:1024800032463B4640464946FEF705F880468946B7
:1024900032463B4610461946FDF7FDFF06460F46FD
:1024A0006410002CEAD1DDE90401DDE90023BAF172
:1024B000000F06DAFDF7EFFF42464B46FDF7EBFF54
:1024C00005E0FEF75AF842464B46FEF756F804463A
:1024D0000E460022284BFEF72DF903D84FF0FF30AF
:1024E000014607E00022254B20463146FDF72CFF30
:1024F000FEF76AFA102409E0002C0ADB0A22002306
:10250000FEF76CF9039B30321A55641E50EA010243
:10251000F2D1641C039AC4F111031444119A012AE4
:1025200003D0012208430DD10AE0084304D0002063
:102530004FF0110B119072E7A3EB0B056D1E0DE030
:102540005B4504DD4FF0000205F1010504E003DA0C
:102550004FF00002A5F10105002AECD00298119974
:10256000C0E90231C0E9004579E7000000001440ED
:102570000000F03F300000000000F0430000E03FAA
:102580002DE9FF4F95B09A46884606460025EEE1B4
:10259000252877D100242746F94A0121039400E039
:1025A000044316F8013F203B01FA03F01042F7D133
:1025B00030782A2811D06FF02F033078A0F1300244
:1025C000092A16D8039A44F0020402EB820203EBB4
:1025D00042021044761C0390EFE758F8042B039254
:1025E000002A03DA504244F40054039044F00204F9
:1025F000761C30782E2816D116F8010F44F004040A
:102600002A280DD06FF02F023078A0F13003092B6B
:1026100009D807EB870302EB4303C718761CF3E7DF
:1026200058F8047B761C30786C280FD006DC4C28D8
:1026300017D068280DD06A2814D104E0742810D06F
:102640007A280FD10DE044F400140AE044F4801419
:1026500001E044F440147278824202D104F58014FF
:10266000761C761C307866280BD013DC582877D07F
:1026700009DC002875D04528F6D04628F4D0472834
:102680001AD193E118E0632835D0642879D0652801
:1026900012D18BE1702873D008DC6728F1D069284B
:1026A0006FD06E280DD06F2806D1ACE073282CD0E7
:1026B000752874D0782853D05246179990476D1CCE
:1026C00054E1C4F30250022809D003280DD0D8F8F1
:1026D000001004280DD00D6008F1040846E1D8F878
:1026E0000010EA17C1E90052F6E7D8F800100D8093
:1026F000F2E70D70F0E718F8041B8DF800100020C9
:102700008DF80100EB46012003E058F804BB4FF0C0
:10271000FF3061074FF0000102D40DE009F1010123
:102720008946B9420FDA8145F8DB1BF80910002908
:10273000F4D108E009F1010189468142FADB1BF876
:1027400009100029F6D103985346A0EB090721464A
:102750003846179A00F080FA284400EB090507E094
:1027600044E008E10DE01BF8010B52461799904731
:10277000B9F10109F7D2534621463846179AF2E0DB
:1027800039E00A21C4F302524FF0000B0091022AF3
:1027900006D058F8040BC117032A09D00AE023E039
:1027A00008F1070020F00702F2E80201904605E078
:1027B00000B2C117042A01D140B2C117002906DABC
:1027C0000A460021404261EB02012D2202E022056F
:1027D00004D52B228DF80420012203E0E20701D06A
:1027E0002022F7E7914657E00A2100E010214FF040
:1027F000000B00910BE010214FF0000B44F004049B
:102800000827009103E008204FF0000B0090C4F36C
:102810000252022A05D058F8040B0021032A08D0DE
:1028200008E008F1070020F00702F2E802019046F4
:1028300003E080B2042A00D1C0B24FF000092207A1
:102840002AD53278702A07D0DDF800C08CF0100C41
:102850005CEA0B0C05D00EE040228DF8042001222A
:1028600008E050EA010306D030238DF804308DF8DB
:10287000052002229146009B83F0080353EA0B03D4
:102880000AD150EA010201D1620705D530228DF844
:1028900004204FF001097F1E3278582A04D039A253
:1028A0000C920CAA02920BE03BA2F9E75B46009A5D
:1028B000FDF794FF0C9B9B5C029A521E02921370D0
:1028C00050EA0102F2D1029804A9081A00F1200B83
:1028D000600702D524F4803400E001275F4502DD63
:1028E000A7EB0B0000E0002000EB0B010090039829
:1028F0004944401A0390E00306D453462146179AF0
:10290000039800F0A9F90544002706E001A8524603
:10291000C05D179990476D1C7F1C4F45F6DBE003A7
:102920000CD553462146179A039800F095F90544B3
:1029300004E030205246179990476D1C0099481EBC
:1029400000900029F5DC08E00298029952460078D0
:10295000491C0291179990476D1CBBF10001ABF126
:10296000010BF1DC5BE100F065F90544761C307881
:1029700000287FF40DAE19B02846BDE8F08F0000A6
:102980000928010030313233343536373839616245
:102990006364656600000000303132333435363709
:1029A000383941424344454600000000600700D4E6
:1029B000062708F1070020F00700F0E80223804610
:1029C00003F0004C5FEA0C0001D097A009E020055D
:1029D00001D596A005E0E00701D095A001E0AFF297
:1029E0004C001390307823F0004365280CD006DCAF
:1029F000452809D046281DD047287FD13BE06628CE
:102A000018D067287AD136E00021112F01DB112080
:102A100000E0781CCDE9000104A90CA8FFF7EEFC4A
:102A2000DDE90D010C9A4FF0000B07F1010910923E
:102A300000914EE04FF000400097CDE9011004A94D
:102A40000CA8FFF7DBFCDDE90D020C9B0F994FF0A2
:102A5000000B91461093009211B9791C00EB01090B
:102A6000B7EB090003D4C0F1FF3B07F10109A9EB63
:102A70000700019042E0012F00DA01270021112F09
:102A800001DD112000E03846CDE9000104A90CA8C1
:102A9000FFF7B4FCDDE90D010C9A00914FF0000B3B
:102AA000B946109221070FD4009A4A4503DA91469D
:102AB00001E0A9F10109B9F1010F05DD109AA9F1B1
:102AC0000101515C3029F4D0B84202DA10F1040F50
:102AD00003DA0121CDE9011010E0002803DC834472
:102AE000A9EB000102E0411C494500DD8946A0EB4D
:102AF0000B00401C01904FF000400290200705D4CD
:102B00000198484502DB4FF0FF30019000208DF81E
:102B10004B0002980DF14B07B0F1004F25D0022079
:102B20000C902B200D90029800280CDA4042029065
:102B30002D200D9007E00A210298FDF739FE303173
:102B4000029007F8011D0C99481E0C900029F2DC38
:102B500002980028EFD1791E0D980870307800F0A7
:102B6000200040F0450007F8020D11A8C01BC01D51
:102B700002901398007800B1012000EB0901019840
:102B800001EBE071029801440398401A401E039043
:102B9000E00306D453462146179A039800F05CF8E8
:102BA00005441398007818B15246179990476D1C48
:102BB000E00323D553462146179A039800F04CF8BA
:102BC00005441BE0BBF1000F07DB0098584504DD0E
:102BD0001098179910F80B0001E017993020524611
:102BE000904701980BF1010B401E05F10105019082
:102BF00004D12E205246179990476D1CB9F100015F
:102C0000A9F10109DEDC05E017F8010B524617991E
:102C100090476D1C0299481E02900029F4DC53462F
:102C20002146179A03989EE62D0000002B00000015
:102C3000200000002DE9F041044600251E461746FD
:102C4000880404D405E039462020B0476D1C641E7A
:102C5000F9D52846BDE8F0812DE9F041044600256C
:102C60001E469046C80301D5302700E0202788047F
:102C700004D505E041463846B0476D1C641EF9D5C1
:102C80002846BDE8F0810A68531C0B60107070473D
:102C9000F0B593B04FF40040FFF722F801214FF454
:102CA0000170FFF735F801210846FFF723F80E20E1
:102CB000ADF8480000248DF84B4012A93E48FEF7BD
:102CC000B1F93E4F3846FDF7C3FF3D4802903D48FD
:102CD00003900494042505950694802007904000F5
:102CE0000890800009900A94C0000B900C9402A9EF
:102CF0003846FEF745F801213846FDF79BFF0B20CB
:102D00008DF804000A208DF805008DF80640012694
:102D10008DF8076001A8FEF713FA01220221384658
:102D2000FEF724F80D948DF838608DF839404FF493
:102D300060200F9010948DF84450214C0DA94C3C0C
:102D40002046FDF7A9FE0723012211212046FDF7A9
:102D5000C7FE0523022201212046FDF7C1FE0523FF
:102D6000042202212046FDF7BBFE07230322102187
:102D70002046FDF7B5FE01212046FDF772FE012039
:102D8000FDF716FF01212046FDF75FFE2046FDF707
:102D9000E1FE2046FDF778FE0028FAD12046FDF737
:102DA000EAFE2046FDF769FE0028FAD101212046FF
:102DB000FDF7D5FE13B0F0BD000801400800024049
:102DC0004C240140300000202DE9F84F04460D4608
:102DD00021F0004000917349814211DC7249884220
:102DE00001DC06D12CB120462946BDE8F84FFFF79B
:102DF000E2BA6E48002DCCBF6D496E49BDE8F88F30
:102E00006D49814211DD6D498142D8BF4FF0FF36D7
:102E10006DDD20462946FFF765FA042808BFFFF755
:102E2000CFFA20462946BDE8F88F6549654F25F061
:102E30000045814233DD6449814219DD0026324676
:102E40004FF0804320462946FDF77EFA80468A46A9
:102E5000012220462946FDF7E1FD00223B46FDF711
:102E600014FB42465346FDF788FB04460D463EE000
:102E700001260022BA463B4620462946FDF764FA61
:102E800080460F460022534620462946FDF7FDFAAC
:102E900042463B46FDF771FB04460D4627E04B4991
:102EA00081421BDDDFF828A102260022534620467E
:102EB0002946FDF7F0FA00223B46FDF745FA804629
:102EC0000F460022534620462946FDF7DEFA4246C9
:102ED0003B46FDF752FB04460D4608E0032622461A
:102EE0002B4600203B49FDF748FB04460D46224691
:102EF0002B4610461946FDF7CEFA8B46824602460F
:102F00000B46FDF7C8FA07460246334888460B468B
:102F100006217844FFF7FAF952465B46FDF7BBFA03
:102F200082462E488B463A46434605217844FFF7B1
:102F3000EDF93A464346FDF7AEFA02460B46002E3F
:102F4000504659460CDAFDF7FFF922462B46FDF7AD
:102F5000A2FA01B022462B46BDE8F04FFDF798BA21
:102F6000FDF7F2F922462B46FDF795FA1C4A7A4402
:102F700002EBC603D3E90023FDF787FA22462B466E
:102F8000FDF783FA174A7A4402EBC603D3E900231C
:102F9000FDF77EFA009A002AB8BF81F00041BDE833
:102FA000F88F0000000010440000F07F182D4454FA
:102FB000FB21F93FFB21F9BF0000DC3F0000203E70
:102FC0000000F33F0000F03F0000E63F00800340B8
:102FD0000000F83F0000F0BF2A360000E83500008E
:102FE000863500004E3500002DE9F04D9446CCF1B9
:102FF000000423F000464CEA0404594F46EAD47416
:103000009A46884621F00042BC4206D8454240EA32
:10301000050442EAD474BC4204D9BDE8F04D6246CE
:10302000FFF7CCB9AAF14055A5F17F6555EA0C042C
:103030000BD0022404EAAA744A4DDFF82CE144EADA
:10304000D87452EA000B04D00CE0BDE8F04DFFF755
:10305000BBBE002C14BF012CBDE8F08D022C30D07B
:10306000032C32D056EA0C0B0AD0BE4220D1BA4211
:1030700009D126F0804622F080423346114617E0FF
:1030800000291ADB25E0DFF8E4B0FB44002C04BF84
:10309000DBE90001BDE8F08D012C02BFDBE9000196
:1030A00081F00041BDE8F08D022C0AD0032C0CD039
:1030B000BA4212D1B8F1000F0BDA2A482C49BDE808
:1030C000F08D28462B49BDE8F08D28467146BDE8B5
:1030D000F08D24482849BDE8F08D921B12153C2A3A
:1030E000C4BF204F244E10DCBAF1000FBEBF12F156
:1030F0003C0F00273E4608DB6246FDF73EFA21F012
:103100000041FFF761FE07460E4694B1012C08BF4F
:1031100086F000460DD0194A194B022C384631462C
:1031200015D0FDF7B2F92A46BDE8F04D114BFDF779
:10313000ACB90022134638463146FDF7E3FA04BF26
:103140000220FFF755F938463146BDE8F08DFDF70E
:103150009CF92A46BDE8F04D064BFDF799B90000F1
:103160000000F07F182D4454FB2109C0E234000018
:10317000FB21F9BFFB210940FB21F93F075C143318
:1031800026A6A13C401E411CFCD1704770B50546E7
:1031900000244FF47A7603E0304600F005F8641C12
:1031A000AC42F9D370BD000070B500214FF0E025AE
:1031B0006C690A4A12885043AB69AA699A42FCD0EA
:1031C00003D2A3EB0203194403E0A4EB0206334449
:1031D000194413468142F0D370BD0000280000203E
:1031E00010B50446E0B201F04FF8204610BD0000D3
:1031F0001CB503220021012001F0EEFD10490861F9
:1032000018B110A0FFF74CF802E015A0FFF748F83E
:103210000B480121CDE900100023402217A11A48D4
:1032200002F0DEF8012806D018A0FFF739F8BDE853
:103230001C4001F0ABBC1DA0FFF732F8F7E700001F
:1032400014000020B6FED6B5D0C5BAC5C1BFB4B40F
:10325000BDA8B3C9B9A6A3A1A3A1A3A10D0A00004B
:10326000B6FED6B5D0C5BAC5C1BFB4B4BDA8CAA74D
:10327000B0DCA3A1A3A1A3A10D0A00007374617225
:10328000745F7461736B0000A9420008537461722B
:10329000745461736B437265617465C8CECEF1B4CA
:1032A000B4BDA8CAA7B0DC210D0A00005374617236
:1032B000745461736B437265617465C8CECEF1B4AA
:1032C000B4BDA8B3C9B9A6210D0A0000F8B5012103
:1032D0001020FEF71DFD4FF40055ADF800500324FB
:1032E0008DF8024010268DF80360114F694638466C
:1032F000FDF798FE29463846FDF716FF0121092003
:10330000FEF706FD01210B48FDF7E0FE3820ADF881
:1033100000008DF802408DF8036069460648FDF70D
:1033200081FE06490120886048600860F8BD000001
:103330000010014000023000000C01408C8121424D
:103340002DE9FE437A4D7B4F7B4C7C4E4820FEF7A7
:10335000B1FD4FF44070FDF725FF4FF4FA70FFF711
:1033600015FFFFF7B3FFFEF713FAFDF725FFFEF792
:1033700083FBFFF78DFC4FF4E130FEF73BFF70A0BD
:10338000FEF72AFD75A0FEF78BFF0A2001210090B1
:10339000CDE90101052301461A460020FEF730F968
:1033A000082372A200210A20FEF750FB71A200211F
:1033B0003720FEF7AFFA062370A208215A20FEF745
:1033C00045FB2888FDF75EF902460B464FF0333087
:1033D0006C49FDF7D2F8FDF7C5F92060FDF77EF9DD
:1033E00002460B4668A0FEF75BFF6888FDF734F9DC
:1033F00021688846FCF738FF3946FCF767FF6749C4
:10340000FCF732FF6649FCF761FF30604146FDF78B
:10341000C5F901D2206830603068FDF75FF90246D7
:103420000B4660A0FEF73CFFA888FDF715F9216860
:10343000FCF71AFFB8464146FCF748FF5F490860B1
:10344000FDF74CF95E4A5F4BFDF722F85E4A5F4B91
:10345000FDF793F800225E4BFCF776FFFDF782F94B
:103460005C4F3860FDF73AF902460B465AA0FEF76A
:1034700017FFE888FDF7F0F82168FCF7F5FE4146F4
:10348000FCF724FF584D2860FDF728F902460B464B
:1034900056A0FEF705FF2068FDF720F9CDE90001F1
:1034A00058A3062214210020FEF7EEF90623562227
:1034B00014216220FEF710FA3068FDF70FF9CDE90C
:1034C000000154A306221E210020FEF7DDF9062389
:1034D00056221E216220FEF7FFF93868FDF7FEF83C
:1034E000CDE900014FA3062228210020FEF7CCF9E8
:1034F000504800900823062228216220FEF752FA45
:103500002868FDF7EBF8CDE900014BA30622322134
:103510000020FEF7B9F90623562232216220FEF779
:10352000DBF9FEF7A9FAFFF763FE0020BDE8FE8392
:103530003000002000F07F455400002044000020AF
:103540004144432B444D412B524F54532B4F4C4538
:10355000442B55415254200D0A000000B0E6B1BE84
:1035600056322E322E300D0A000000004441515FC9
:1035700034000000E0D6E0D60000000056322E32C3
:103580002E3000003333B34061645F5672656620AD
:103590003D2025302E33660D0A00000000000C434C
:1035A0000000C84261645F726573756C7431203DC0
:1035B0002025302E33660D0A000000004800002050
:1035C000E17A14AE47E1F63F22FDF675E09C713FCB
:1035D000000039405000002074656D70203D2025AA
:1035E000302E33660D0A00004C00002061645F72CB
:1035F0006573756C7432203D2025302E33660D0ABC
:103600000000000050726F77657220203A252B353C
:103610002E3366006164315F726573313A252B3554
:103620002E33660074656D70202020203A252B35DE
:103630002E336600D06400086164315F72657332B6
:103640003A252B352E3366002DE9F047044689468E
:10365000224DEE686F6BD5F838802968002081F81C
:1036600059002868001D00F0E9FE38B9286890F874
:103670002C1001208840296981432961601C17D1E1
:10368000B9F1000F14D0164948682A689060836821
:103690002A68D3602A688368121D5A602A68121D3E
:1036A0008260286841610868401C0860BDE8F087B6
:1036B000344428684460B44206D229684046BDE8D4
:1036C000F047091D00F0E0BE29683846091D00F0EA
:1036D000DBFEA86A8442E9D2AC62E7E77000002012
:1036E0000408002070B5044600F0F2FE254DA868DD
:1036F000401CA860286810B1686938B10CE02C60E3
:10370000A868012808D100F007FA05E02868E16AF6
:10371000C06A884200D82C60686A401C6862606495
:10372000E06A01212A69814011432961164A00EBB0
:10373000800002EB80004068A0608168E1608368DF
:10374000211D59608160E06A00EB800002EB80017E
:10375000616152F82010491C42F8201000F0FAFE76
:10376000686900280CD02868E16AC06A884207D2DC
:1037700006494FF080500860BFF34F8FBFF36F8F43
:1037800070BD0000700000203405002004ED00E052
:1037900010B500F09DFE0E4C2068A0B90D4800F059
:1037A00065FE0C48143000F061FE0A48E0601430F9
:1037B000206100221021052001F00EFB206010B1D5
:1037C00005A100F0C5FFBDE8104000F0C3BE000039
:1037D000B000002018080020546D72510000000055
:1037E00070B50C4D0C4E11E000F072FEF068C4682C
:1037F000201D00F023FEA868401EA8606868401ED7
:10380000686000F0A7FE204600F0AAF8686800286B
:10381000EAD170BD70000020F007002030B40B46E4
:10382000026C002A0CD0C1681144C1608468A142B6
:1038300001D30168C160C16830BC1846FCF7E2BC26
:1038400030BC70472DE9F041044617460026A56BB1
:10385000226C002A10D0C7B1E068FCF7D3FCE16805
:10386000206C091AE1602268914202D2A168081A0C
:10387000E060022F16D017E02068A8B9A06801F018
:1038800085FE06460020A0600EE06068FCF7BAFCEA
:10389000216C606808446060A168884204D3206895
:1038A000606001E005B16D1E6D1CA5633046BDE88A
:1038B000F081000070B586B0002002AA0DA1095C5D
:1038C000115411B1401C1028F8DB00240B4E0025C8
:1038D0000B4806EB8401CDE900510023802202A9A8
:1038E00001F07EFD002802D0641C012CF0DB06B044
:1038F00070BD000049444C4500000000AC000020B1
:10390000F53900082DE9FF5F8146DDE90E788A462A
:1039100016469B46B00000F0D5FB054628000ED0A9
:103920005C2000F0CFFB04462CB15C212046FCF764
:1039300082FC256304E0284600F046FE00E00024F7
:1039400054B10020CDE90240CDE900785B46324613
:103950005146484600F076F804B02046BDE8F09F96
:1039600010B50446206B00F02FFE2046BDE8104045
:1039700000F02ABE416A002904D0006B0068C0F143
:1039800020007047002070470749CA681168002965
:1039900004D00021016019B1002070470121F9E72E
:1039A000D068006870470000B00000204FF420513C
:1039B0000E48420706D0C01D20F007000B49411AEF
:1039C000C1F520510A4A10600023536001440839B0
:1039D00021F00701143A11604B600B600B1A436031
:1039E000016040689060506070470000400800200F
:1039F000E4000020074E4FF08054074DFFF7F0FE23
:103A000030680128FAD92C60BFF34F8FBFF36F8F56
:103A1000F4E700003405002004ED00E070B51D4619
:103A2000049C00290BD02260E06321640121204620
:103A300001F014FA84F850500020A06470BD246096
:103A4000F2E700002DE9F047DDE908580A9C8146BD
:103A50000E4617469A46B900A522206BFCF7E4FBF8
:103A6000206B7F1E00EB870020F00707780705D04A
:103A700040F22E721BA124A0FEF712FC66B10020BA
:103A80002218315C82F83410315C11B1401C1028CE
:103A9000F6D3002084F84300202D05D340F2647251
:103AA00010A119A0FEF7FCFB202D00D31F25E56215
:103AB000E564201D00F0E5FC04F1180000F0E1FCD5
:103AC0002461C5F12000A06164625246494638462F
:103AD00000F0CCFB2060B8F1000F01D0C8F8004026
:103AE000BDE8F0872E2E5C4D6964646C6577617269
:103AF00065735C4672656552544F535C7372635CC8
:103B00007461736B732E63004572726F723A202575
:103B1000732C2025640D0A0070B50024114D04EBB0
:103B2000840005EB800000F0A1FC641C202CF6D37F
:103B30000D4800F09BFC0C48143000F097FC0A483C
:103B4000283000F093FC08483C3000F08FFC064819
:103B5000503000F08BFC0548034941631431816308
:103B600070BD000034050020B40700207000002064
:103B700070B505461A4C00E004462068A842FBD305
:103B8000174884420BD01748844202D31648844217
:103B900005D94FF4FD7215A121A0FEF781FB6068E5
:103BA0000119A94203D1696808446060254620686C
:103BB00069684A1982420DD1094A143A1268904242
:103BC00006D040680844686020680068286002E009
:103BD0002A6000E02860AC4200D0256070BD000083
:103BE000E4000020400800203F3000202E2E5C4DD5
:103BF0006964646C6577617265735C467265655271
:103C0000544F535C706F727461626C655C4D656D8E
:103C10004D616E675C686561705F342E6300000003
:103C20004572726F723A2025732C2025640D0A00AC
:103C300070B50024416000610C4D91420AD8D11A40
:103C40008269914201D301240EE0011D286900F030
:103C50001BFC09E09A4203D2994201D3012403E0FC
:103C6000011DE86800F010FC204670BDB000002087
:103C700010B5044600F02CFCA06B20B1002400F02D
:103C800069FC204610BD0124F9E70000F1B5009859
:103C9000846C0026002C05D140F6F8421BA124A01C
:103CA000FEF7FEFAA06BE16B884205D340F6F942BD
:103CB00016A11FA0FEF7F4FAA06BE16B884222D296
:103CC00094F94550002269462046FFF7BBFD0646A1
:103CD000681C06D000F0C4FB854214D27F2D09D0A9
:103CE0000EE0606A78B104F1240001F01BFD50B1D0
:103CF000012608E040F6195204A10DA0FEF7D0FA03
:103D00006D1C84F845503046F8BD00002E2E5C4DE9
:103D10006964646C6577617265735C46726565524F
:103D2000544F535C7372635C71756575652E6300E7
:103D30004572726F723A2025732C2025640D0A009B
:103D400070B505460E460D48C068C068C468201DA1
:103D500000F074FB94F82800410705D53246294647
:103D6000204600F0DFF803E000F0FE0084F82800B1
:103D70002046216ABDE8704008470000B0000020DE
:103D800070B586B0002002900390049005903B4EE1
:103D90006AE00298002803DADDE9032005999047DC
:103DA0000298002860DB049C606910B1201D00F0BF
:103DB00045FB01A800F0DAF8054602980A2853D21C
:103DC000DFE800F0520505292F460505292F94F854
:103DD000280040F0010084F828000398A1690346F8
:103DE00001442A462046FFF723FF00283CD094F8E0
:103DF0002800410707D50398A1692A4601442046B7
:103E000000F090F803E000F0FE0084F82800216A3A
:103E10002046884728E014F8280F00F0FE002070A4
:103E200022E094F8280040F0010084F8280003986C
:103E3000A06128B94FF4826211A11BA0FEF730FAED
:103E4000A0692B4641192A462046FFF7F1FE0BE0F8
:103E500094F82800810703D4204600F0B5FB03E066
:103E600000F0FE0084F82800002202A9306801F06A
:103E7000E1F800288DD106B070BD0000B000002030
:103E80002E2E5C4D6964646C6577617265735C4667
:103E900072656552544F535C7372635C74696D65EF
:103EA00072732E63000000004572726F723A202513
:103EB000732C2025640D0A00F8B506460D4600F067
:103EC000A7FE684600F052F80446009810B101F0D1
:103ED000B3FCF8BD45B9A64206D801F0ADFC2146B9
:103EE0003046FFF72DFFF8BD0C481DB10169096888
:103EF00091B10025311B2A46006800F069FC01F0F1
:103F00009BFC0028EFD106494FF080500860BFF3BA
:103F10004F8FBFF36F8FF8BD0125EBE7B000002096
:103F200004ED00E070B505460C46164604E0A869AD
:103F30000444296A28468847A8692346011932465D
:103F40002846FFF775FE0028F1D170BD0648416B89
:103F50000968002904D0416BC9680968816270470B
:103F60004FF0FF31816270477000002070B5054648
:103F700001F054FA0446074EB068844204D200F0BF
:103F80000BF80120286001E000202860B460204682
:103F900070BD0000B000002070B5094C4FF0FF3537
:103FA00004E0C06800682946FFF7CAFEE0680268BE
:103FB000002AF6D1E0682169E160206170BD00004F
:103FC000B000002008484068401C04D0CE2207A161
:103FD00014A0FEF765F9502080F31188BFF34F8FCE
:103FE000BFF36F8FFEE70000C40000202E2E5C4D53
:103FF0006964646C6577617265735C46726565526D
:10400000544F535C706F727461626C655C525644BD
:10401000535C41524D5F434D335C706F72742E633D
:10402000000000004572726F723A2025732C202523
:10403000640D0A0008B56846FFF7A6FC0099FFF773
:104040003BFFFFF79DFEF6E72DE9F041044600F047
:104050003FFA94F9455004F1240612E0A06C30B107
:104060002046FFF713FE50B100F096FC07E0606AAF
:1040700048B1304601F056FB08B100F08DFC6D1ED2
:104080006DB2002DEADC4FF0FF3684F8456000F099
:1040900061FA00F01DFA94F9445004F1100709E0A8
:1040A000206948B1384601F03DFB08B100F074FCCE
:1040B0006D1E6DB2002DF3DC84F84460BDE8F04164
:1040C00000F048BA2DE9F04705460027002D11D031
:1040D00015F1090F0DD8083568070BD005F007005A
:1040E000C0F10800C1438D4201D8054402E000251B
:1040F00000E0002500F08CFDDFF80C91D9F80000FD
:1041000008B9FFF753FC002D70DDD9F80400854293
:104110006CD83D4E143630460468DFF8F0A0DFF866
:10412000F080544501D3444510D9F52239A146A069
:10413000FEF7B6F80AE026460446544501D3444546
:1041400004D9FB2233A140A0FEF7AAF86068A84278
:1041500002D220680028EED1D9F80000844245D070
:1041600037680837574501D3474505D940F205124E
:1041700028A135A0FEF794F8206830606068A84256
:1041800005D240F20D1223A12FA0FEF789F8606836
:10419000401B102814D904EB05085FEA487005D0CD
:1041A0004FF48B721BA128A0FEF77AF86068401BC1
:1041B000C8F8040065603068C8F80000C6F80080E0
:1041C0006168D9F80400401AC9F80400D9F8082039
:1041D000904201D2C9F8080041F000406060002020
:1041E0002060D9F80C00401CC9F80C0001F024FB39
:1041F000780705D040F2571206A113A0FEF750F839
:104200003846BDE8F0870000D000002040080020BC
:104210003F3000202E2E5C4D6964646C65776172BE
:1042200065735C4672656552544F535C706F72746F
:1042300061626C655C4D656D4D616E675C68656162
:10424000705F342E630000004572726F723A202551
:10425000732C2025640D0A0003480068002802D052
:10426000016D491C016570477000002020384FF037
:104270008073C36121F0010181610249416140F80D
:1042800020297047C53F000810B5064C014620465E
:10429000FDF7ACFF80212046FDF704FF0028F9D090
:1042A00010BD0000003801401CB500F011F9224893
:1042B0000521CDE900100023402220A1214801F072
:1042C0008FF801282BD020A0FDF7EAFF1A48032120
:1042D000001DCDE900100023802221A1224801F019
:1042E0007FF801281FD021A0FDF7DAFF1248042132
:1042F0000830CDE900100023802222A1234801F0DC
:104300006FF8012813D019A0FDF7CAFF0A48001F53
:10431000006800F0C1FABDE81C4000F01BB91CA009
:10432000FDF7BEFFD2E720A0FDF7BAFFDEE71EA033
:10433000FDF7B6FFEAE70000180000207461736B18
:1043400031000000C14300085461736B31C8CECE08
:10435000F1B4B4BDA8CAA7B0DC210D0A000000006A
:104360007461736B32000000154400085461736B74
:1043700032C8CECEF1B4B4BDA8CAA7B0DC210D0AB4
:10438000000000007461736B3300000021440008DA
:104390005461736B31C8CECEF1B4B4BDA8B3C9B902
:1043A000A6210D0A000000005461736B32C8CECE06
:1043B000F1B4B4BDA8B3C9B9A6210D0A000000002C
:1043C0000F4C4FF4FA760F4D0AE0FCF7F9FCFDF7BD
:1043D000DFFB02E00CA0FDF763FF012000F01CFAF8
:1043E000D4F8940180F00100C4F89401FCF7C8FBF4
:1043F0003146286900F0CEFE0128EBD1E5E7000048
:104400000080214214000020D2D1B3ACCAB10D0A01
:1044100000000000FCF73EFD0A2000F0FDF9F9E77E
:10442000054CD4F88C0180F00100C4F88C016420A4
:1044300000F0F2F9F5E70000008021420169D0E9BF
:1044400001329A60D0E901235A604A68824201D160
:1044500082684A60002202610868401E0860704756
:1044600001488068704700007000002000F10801DA
:1044700041604FF0FF328260C16001610021016044
:10448000704700210161704730B50C68621C02D092
:1044900000F1080202E0026904E01A4653681D6850
:1044A000A542FAD953684B6099608A6051600861EF
:1044B0000168491C016030BD42684A6093688B60A6
:1044C00093685960916008610168491C01607047F8
:1044D000502080F31188BFF34F8FBFF36F8F0949CE
:1044E0004868401C486001280AD10748006810F05D
:1044F000FF0F05D04FF4C27204A112A0FDF7D0BE89
:1045000070470000C400002004ED00E02E2E5C4D3A
:104510006964646C6577617265735C467265655247
:10452000544F535C706F727461626C655C52564498
:10453000535C41524D5F434D335C706F72742E6318
:10454000000000004572726F723A2025732C2025FE
:10455000640D0A0010B5094C6068002805D140F2CE
:104560008B1207A114A0FDF79BFE6068401E6060DF
:10457000002801D180F3118810BD0000C400002084
:104580002E2E5C4D6964646C6577617265735C4660
:1045900072656552544F535C706F727461626C65E2
:1045A0005C525644535C41524D5F434D335C706FD7
:1045B00072742E63000000004572726F723A2025FB
:1045C000732C2025640D0A0070B5002838D00838F7
:1045D00004461C48844202D31B48844205D94FF448
:1045E000B5721AA126A0FDF75BFE6068002805DB06
:1045F00040F26B1215A122A0FDF752FE206828B1EF
:104600004FF4B67211A11EA0FDF74AFE60680028A3
:1046100016DA2168002913D120F00040606000F014
:10462000F7FA1B4D60686968084468602046FFF728
:104630009FFA2869401C2861BDE8704001F0FCB871
:1046400070BD0000400800203F3000202E2E5C4D41
:104650006964646C6577617265735C467265655206
:10466000544F535C706F727461626C655C4D656D24
:104670004D616E675C686561705F342E6300000099
:104680004572726F723A2025732C2025640D0A0042
:10469000D00000204FF0E020002101618161054938
:1046A0004FF4FA520968B1FBF2F1491E416103214E
:1046B000016170470000002010B5FBF78DFD104C24
:1046C00010280CD300F1E02090F8F0032178884204
:1046D00005D240F206320BA118A0FDF7E1FD1B4800
:1046E0000068A16800F4E060884207D9BDE8104086
:1046F00040F2163203A111A0FDF7D2BD10BD00009B
:10470000C40000202E2E5C4D6964646C6577617274
:1047100065735C4672656552544F535C706F72747A
:1047200061626C655C525644535C41524D5F434D2F
:10473000335C706F72742E63000000004572726FFC
:10474000723A2025732C2025640D0A000CED00E040
:1047500070B505460E460024002D05D140F6C9323D
:104760000DA116A0FDF79CFD8EB10022174800EBAD
:10477000C2035968A94202D100EBC20407E01CB988
:1047800050F8321001B91C46521C082AEFD3002CF5
:1047900001D02660656070BD2E2E5C4D6964646C2E
:1047A0006577617265735C4672656552544F535C00
:1047B0007372635C71756575652E63004572726F07
:1047C000723A2025732C2025640D0A00F404002081
:1047D00070B504460D461646FFF77AFE94F944304C
:1047E0004FF000005B1C01D184F8440094F945109F
:1047F000491C01D184F84500FFF7ACFEA06B28B935
:104800003246294604F1240000F000F92046BDE8B4
:104810007040FFF719BC000010B504460020002CC2
:1048200011D000F0F5F90D48006B012805D040F6D5
:104830008E120BA113A0FDF733FD00212046FEF7D9
:1048400003FF00F0F9FF002807D112494FF0805014
:104850000860BFF34F8FBFF36F8F10BD7000002053
:104860002E2E5C4D6964646C6577617265735C467D
:1048700072656552544F535C7372635C7461736B01
:10488000732E63004572726F723A2025732C2025B7
:10489000640D0A0004ED00E070B504460025FFF742
:1048A00017FE284E04B93468201DFFF7C7FD58B91C
:1048B000E06A254A00EB800152F8211021B901215C
:1048C0008140306988433061A06A18B104F1180052
:1048D000FFF7B4FD706A401C70623068844201D1F9
:1048E000012000E00020716949B140B1211D174845
:1048F000FFF7E2FD7068401C7060012504E0B068BD
:10490000401EB060FFF722FBFFF724FE012D02D00E
:104910002046FFF725F87069002812D030688442DD
:104920000FD1306B28B140F6141209A111A0FDF788
:10493000B7FC14494FF080500860BFF34F8FBFF3AE
:104940006F8F70BD7000002034050020F00700203C
:104950002E2E5C4D6964646C6577617265735C468C
:1049600072656552544F535C7372635C7461736B10
:10497000732E63004572726F723A2025732C2025C6
:10498000640D0A0004ED00E002490A6A0260C96889
:1049900041607047700000200149012008607047A5
:1049A0008C00002070B504460D46002C05D14FF454
:1049B000A45208A110A0FDF773FC1348016820461B
:1049C0001831FFF761FD2846BDE870400121FEF770
:1049D0003BBE00002E2E5C4D6964646C657761728D
:1049E00065735C4672656552544F535C7372635CC9
:1049F0007461736B732E63004572726F723A202577
:104A0000732C2025640D0A007000002070B5044648
:104A10000D461646002C05D141F2BE420FA118A04A
:104A2000FDF73EFC60681A490A68D06182680B682D
:104A30001A620A68836818325A600A6818328260FB
:104A4000086884622068401C20600EB14FF0FF357A
:104A500031462846BDE87040FEF7F6BD2E2E5C4D6F
:104A60006964646C6577617265735C4672656552F2
:104A7000544F535C7372635C7461736B732E630089
:104A80004572726F723A2025732C2025640D0A003E
:104A90007000002070B50E460446002856D0206DE8
:104AA00028B941F686222AA132A0FDF7F9FBE56C70
:104AB000B54200D23546E06AA84247D0206D0128B1
:104AC00044D1304E3068844205D141F6A12220A164
:104AD00028A0FDF7E5FBE06AE562A169002902DB99
:104AE000C5F12001A161284D00EB8000616905EB53
:104AF000800081422AD1201DFFF7A0FC012130B99E
:104B000094F82C00326901FA00F082433261E06AC5
:104B1000326981401143316100EB800005EB800078
:104B20004068A0608168E1608268211D51608160F9
:104B3000E06A00EB800005EB80006061E06A00EB5A
:104B4000800055F82010491C45F8201070BD000069
:104B50002E2E5C4D6964646C6577617265735C468A
:104B600072656552544F535C7372635C7461736B0E
:104B7000732E63004572726F723A2025732C2025C4
:104B8000640D0A00700000203405002010B5FEF707
:104B900091FE012801D100F009FF0F4C012802D03D
:104BA000401C11D016E0502080F31188BFF34F8FC6
:104BB000BFF36F8F4FF0FF30A062012060610020D3
:104BC000E06000F079F805E040F6A96203A10CA0CE
:104BD000FDF766FBE06A10BD700000202E2E5C4DD4
:104BE0006964646C6577617265735C467265655271
:104BF000544F535C7372635C7461736B732E630008
:104C00004572726F723A2025732C2025640D0A00BC
:104C10000248016B491C01637047000070000020CE
:104C200070B5164D296B05F11C00002902D0012139
:104C3000016070BD002101602869B0FA80F0C0F108
:104C40001F000F4E00EB800456F8240028B941F2F3
:104C5000FA320CA114A0FDF723FB06EB8400416897
:104C60004968416000F10802914201D1C168416088
:104C70004068C0682860286870BD0000700000208F
:104C8000340500202E2E5C4D6964646C657761727A
:104C900065735C4672656552544F535C7372635C16
:104CA0007461736B732E63004572726F723A2025C4
:104CB000732C2025640D0A00FEB500250195264EB3
:104CC00030780290FF203070307800909DF800001E
:104CD000224C00F050002070002805D140F227122D
:104CE0001FA12DA0FDF7DCFA9DF80010502088438D
:104CF0000DD040F22B121AA127A0FDF7D1FA06E041
:104D00000198401C01909DF80000400000909DF823
:104D100000000006F4D4019808281BD00198C0F1C7
:104D20000700A060207A000200F4E060A0609DF817
:104D3000080030701C48016841F47F01016001687F
:104D400041F07F410160FFF7A5FC6560FBF70EFABB
:104D50000020FEBDA560E5E700E400E0C4000020FF
:104D60002E2E5C4D6964646C6577617265735C4678
:104D700072656552544F535C706F727461626C65FA
:104D80005C525644535C41524D5F434D335C706FEF
:104D900072742E63000000004572726F723A202513
:104DA000732C2025640D0A0020ED00E010B5502082
:104DB00080F31188BFF34F8FBFF36F8F00F034FB88
:104DC00018B104494FF080500860002080F311882A
:104DD00010BD000004ED00E0F8B505460E4617468C
:104DE0000024002D17D0601EB0FBF5F0B04212D3A6
:104DF00005FB06F010F1550F0DD85430FFF762F99E
:104E0000044674B1224654323B463146284600944B
:104E1000FEF704FE05E040F22A2203A10BA0FDF7F5
:104E20003FFA2046F8BD00002E2E5C4D6964646C8C
:104E30006577617265735C4672656552544F535C69
:104E40007372635C71756575652E63004572726F70
:104E5000723A2025732C2025640D0A002DE9F041BB
:104E600004460F460125002C05D140F2371227A138
:104E70002FA0FDF715FA20003CD0E06BC8B34FF02F
:104E8000FF36B6FBF0F1206C814233D3FFF720FBF5
:104E9000D4E90F20216802FB0011A1600021A16369
:104EA00021686160E06B2268216C401E00FB0121DB
:104EB000E16084F8446084F8456004F1100047B173
:104EC000FFF7D4FA04F12400FFF7D0FAFFF742FB12
:104ED00011E021690029F9D000F024FC0028F5D068
:104EE00017494FF080500860BFF34F8FBFF36F8FAB
:104EF000ECE7FFE700252DB94FF4B67203A10CA033
:104F0000FDF7CEF92846BDE8F08100002E2E5C4D5D
:104F10006964646C6577617265735C46726565523D
:104F2000544F535C7372635C71756575652E6300D5
:104F30004572726F723A2025732C2025640D0A0089
:104F400004ED00E02DE9F04104460E46002C05D1A9
:104F50004FF4A8622AA133A0FDF7A2F9206C28B172
:104F600040F2445226A12FA0FDF79AF9206838B9E3
:104F7000A06828B140F2495221A12AA0FDF790F97A
:104F8000FFF79AFB5020EFF3118780F31188BFF3EE
:104F90004F8FBFF36F8FA06BE16B81422BD994F9D8
:104FA0004550401CA063681C06D0FFF759FA8542A3
:104FB0001FD27F2D14D019E0A06C012530B12046FE
:104FC000FEF764FEA8B1A6B1356012E0606A80B158
:104FD00004F1240000F0A6FB58B156B1356008E09A
:104FE00040F2CB5206A10FA0FDF75AF96D1C84F8D0
:104FF0004550012000E0002087F31188BDE8F081D2
:105000002E2E5C4D6964646C6577617265735C46D5
:1050100072656552544F535C7372635C717565754C
:10502000652E63004572726F723A2025732C20251D
:10503000640D0A002DE9F74783B004468A4600262E
:10504000002C05D140F2E95244A14DA0FDF728F90A
:10505000BAF1000F07D1206C28B140F2ED523FA108
:1050600047A0FDF71DF900F0CBF938B9059828B134
:1050700040F2F25239A142A0FDF712F900274FF099
:105080008058DFF80C91FFF723FAA56BC5B15146A4
:105090002046FEF7C3FB6D1EA563206950B104F1E5
:1050A000100000F03FFB28B1C9F80080BFF34F8F1C
:1050B000BFF36F8FFFF74EFA012006B0BDE8F0870F
:1050C000059808B126B107E0FFF744FA0020F4E79D
:1050D00001A8FFF759FC0126FFF73CFAFFF798FDFE
:1050E000FFF7F6F994F94400401C01D184F84470AC
:1050F00094F94500401C01D184F84570FFF72AFA65
:1051000005A901A800F00CF958B12046FEF79CFF54
:1051100000F092FB2046FEF7ABFD0028B3D0002044
:10512000CBE72046FEF7A4FD90B104F124000599D9
:10513000FFF738FC2046FEF787FF00F07DFB0028D4
:10514000A1D1C9F80080BFF34F8FBFF36F8F9AE7EB
:105150002046FEF779FF00F06FFB94E72E2E5C4DA2
:105160006964646C6577617265735C4672656552EB
:10517000544F535C7372635C71756575652E630083
:105180004572726F723A2025732C2025640D0A0037
:1051900004ED00E02DE9F34383B004460025A94661
:1051A000002C05D140F282624FA158A0FDF778F89B
:1051B000206C28B140F286624BA154A0FDF770F834
:1051C00000F01EF938B9049828B140F28B6246A16C
:1051D0004EA0FDF765F800264FF08057DFF83C81C0
:1051E000FFF776F9A06BC8B1401EA063206810B924
:1051F000FFF732F8A060206950B104F1100000F010
:1052000091FA28B1C8F80070BFF34F8FBFF36F8FCA
:10521000FFF7A0F9012005B0BDE8F083049808B1BC
:1052200025B107E0FFF796F90020F4E701A8FFF7A2
:10523000ABFB0125FFF78EF9FFF7EAFCFFF748F912
:1052400094F94400401C01D184F8446094F945006D
:10525000401C01D184F84560FFF77CF904A901A83E
:1052600000F05EF8C8B12046FEF7EEFE00F0E4FA6A
:105270002046FEF7FDFC0028B2D0B9F1000F0AD09D
:10528000FFF726F92046FEF775FB0146A068FFF7F9
:1052900001FCFFF75FF90020BDE72046FEF7E8FCC0
:1052A000E0B1206838B9FFF713F9A06800F0E0F921
:1052B0008146FFF74FF904F124000499FFF772FBD0
:1052C0002046FEF7C1FE00F0B7FA002888D1C8F8E2
:1052D0000070BFF34F8FBFF36F8F81E72046FEF75B
:1052E000B3FE00F0A9FA7BE72E2E5C4D6964646C76
:1052F0006577617265735C4672656552544F535CA5
:105300007372635C71756575652E63004572726FAB
:10531000723A2025732C2025640D0A0004ED00E06C
:105320002DE9F04104460D46002C05D141F2A5526D
:105330001DA126A0FCF7B4FF2DB941F2A6521AA177
:1053400022A0FCF7ADFFFFF7C3F8244EF2686368B4
:10535000D01A3168002791F8591021B1306880F8CF
:10536000597001241AE02968B1F1FF3F09D0D4F83F
:1053700000C0366AB44506D0934204D801242F6099
:105380000CE000240AE0814206D9081A2860204671
:10539000FFF7FAFA002401E02F600124FFF7DAF8A2
:1053A0002046BDE8F08100002E2E5C4D6964646CDF
:1053B0006577617265735C4672656552544F535CE4
:1053C0007372635C7461736B732E63004572726FEA
:1053D000723A2025732C2025640D0A0070000020ED
:1053E0007CB5DDE90654CDE90054FEF78BFA18B11F
:1053F000FEF778F901207CBD4FF0FF307CBD000046
:1054000005484169002903D0006B18B1002070479E
:105410000120704702207047700000200148C068DA
:1054200070470000700000202DE9F0410025484E33
:10543000306B002805D0B069401CB0612846BDE83B
:10544000F081F468641CF4608CB9706B006828B15A
:1054500041F25F223FA148A0FCF722FF706BB16BC5
:105460007163B063306A401C3062FEF76FFDB06A52
:10547000454F84420FD34FF0000C706B006838B179
:10548000706BC068C1684868844214D2B06202E0A0
:105490004FF0FF30B0623068C06A00EB800057F810
:1054A0002000012800D9012529481C300068002867
:1054B000C4D00125C2E74A69D1E902309860D1E938
:1054C0000203586050680B1D984201D1C8685060B3
:1054D000C1F814C01068401E10608A6A9AB1D1E900
:1054E0000780C8F80800D1E90708C8F80400506828
:1054F00001F11808404501D1086A5060C1F828C080
:105500001068401E1060C86A0122D6F810808240E0
:1055100042EA0802326100EB800007EB800042683B
:105520008A609068C860906843609360C86A00EBC6
:10553000800007EB80024A6157F82020521C47F890
:105540002020C86A3168C96A884296D9012594E743
:10555000700000202E2E5C4D6964646C657761726A
:1055600065735C4672656552544F535C7372635C3D
:105570007461736B732E63004572726F723A2025EB
:10558000732C2025640D0A003405002070B50446F4
:10559000002600284BD0274D2868844205D041F6CC
:1055A000282225A12DA0FCF77BFE206D28B941F60D
:1055B000292221A129A0FCF773FE206D401E206541
:1055C000E26CE16A914232D088BB201DFEF736FFC3
:1055D000012130B994F82C002A6901FA00F08243C5
:1055E0002A61E06CE062C0F12000A061E06A2A69F3
:1055F0008140114329611D4A00EB800002EB8000CD
:105600004068A0608168E1608368211D5960816005
:10561000E06A00EB800002EB80006061E06A00EB72
:10562000800052F82010491C42F820100126304614
:1056300070BD0000700000202E2E5C4D6964646C0B
:105640006577617265735C4672656552544F535C51
:105650007372635C7461736B732E63004572726F57
:10566000723A2025732C2025640D0A003405002091
:1056700070B504460020002C48D0284DE16A2A6805
:10568000D26A914243D2A069002804DB2868C06A2C
:10569000C0F12000A061E06A214E00EB800061694A
:1056A00006EB800081422DD1201DFEF7C7FE0121AF
:1056B00030B994F82C002A6901FA00F082432A617B
:1056C0002868C06AE0622A6981401143296100EBC1
:1056D000800006EB80004068A0608168E16082681D
:1056E000211D51608160E06A00EB800006EB8000C4
:1056F0006061E06A00EB800056F82010491C46F813
:10570000201002E02868C06AE062012070BDE16CF0
:105710002A68D26A9142F9D2012070BD700000203F
:105720003405002070B5C068C468002C05D141F272
:10573000F54231A139A0FCF7B3FDA06AD4E90721F5
:105740009160D4E907125160426804F118018A425D
:1057500001D1226A42600025A5620268521E0260E1
:10576000324B186B0122A8B1314D6868E061866840
:105770002662866871608160A5622868401C286086
:10578000E06A1968C96A884233D9012027491C3167
:105790000A6070BD6069D4E90261B160D4E90216A3
:1057A00071604668211D8E4201D1E66846606561E0
:1057B00005686D1E0560E06A1E6902FA00F5354352
:1057C0001D611C4D00EB800005EB80004068A0606F
:1057D0008668E660866871608160E06A00EB800040
:1057E00005EB8001616155F82010491C45F8201037
:1057F000C6E7002070BD00002E2E5C4D6964646C0D
:105800006577617265735C4672656552544F535C8F
:105810007372635C7461736B732E63004572726F95
:10582000723A2025732C2025640D0A007000002098
:10583000DC070020340500202DE9F0470024A246B3
:10584000FEF746FE0025484F386B28B940F68B72AC
:1058500046A14FA0FCF724FD386B401E3863386B1F
:1058600000287BD1B868002878D03F4E4FF000095F
:105870004B4A4FF001081C3650E0D068C468A16A5A
:10588000D4E907309860D4E9070358604B6804F105
:105890001800834201D1206A4860C4F82890086843
:1058A000401E08606069D4E902319960D4E90213AE
:1058B00059604368211D8B4201D1E3684360C4F8FD
:1058C000149003685B1E0360E06AD7F810C008FA02
:1058D00000F343EA0C033B61324B00EB800003EB27
:1058E00080004068A060D0F808C0C4F80CC0D0F8B0
:1058F00008C0CCF804108160E06A00EB800003EB84
:105900008001616153F82010491C43F82010E06ABF
:105910003968C96A884201D946F82580106800288C
:10592000ABD10CB1FEF712FBBC694CB1FFF77CFDAB
:1059300008B146F82580641E002CF7D1C7F81890EE
:1059400056F8250050B14FF0010A386816494FF05B
:1059500080500860BFF34F8FBFF36F8FFEF7FAFDE3
:105960005046BDE8F0870000700000202E2E5C4DF0
:105970006964646C6577617265735C4672656552D3
:10598000544F535C7372635C7461736B732E63006A
:105990004572726F723A2025732C2025640D0A001F
:1059A000DC0700203405002004ED00E01CB50024D5
:1059B000FDF7EEFE0C48006860B10B481F21001D8A
:1059C000CDE9001000234FF4807208A10948FFF7C9
:1059D00007FD04462CB94FF4A37207A110A0FCF7F1
:1059E0005FFC20461CBD0000B0000020546D7220FA
:1059F00053766300354000082E2E5C4D6964646C5C
:105A00006577617265735C4672656552544F535C8D
:105A10007372635C74696D6572732E6300000000BD
:105A20004572726F723A2025732C2025640D0A008E
:105A30000000000000000000000000000000000066
:105A4000000000F8000000000000003330000000FB
:105A500000160E00160E00000000000000000000FE
:105A600040C07840C0784000043F04043F04040074
:105A7000007088FC08300000001820FF211E000084
:105A8000F008F000E018000000211C031E211E0099
:105A900000F00888700000001E212324192721101F
:105AA000000000160E0000000000000000000000D2
:105AB000000000E018040200000000071820400069
:105AC00000020418E0000000004020180700000059
:105AD000404080F0804040000202010F01020200BD
