:020000040800F2
:100000003808002001010008090100080B01000860
:100010000D0100080F010008110100080000000098
:1000200000000000000000000000000013010008B4
:100030001501000800000000170100081901000860
:100040001B0100081B0100081B0100081B01000820
:100050001B0100081B010008190F00085D0F0008B4
:100060001B0100081B010008990F00081B01000874
:100070001B0100081B0100081B0100081B010008F0
:100080001B0100081B0100081B0100081B010008E0
:100090001B0100081B0100081B0100081B010008D0
:1000A0001B010008792700081B0100081B0100083C
:1000B000AD270008DD270008112800081B010008F3
:1000C0001B0100081B0100081B0100081B010008A0
:1000D0001B010008352900081B0100081B0100084E
:1000E0001B0100081B0100081B010008DFF80CD0F1
:1000F00000F004FC004800479D2D0008380800204F
:100100000648804706480047FEE7FEE7FEE7FEE7B1
:10011000FEE7FEE7FEE7FEE7FEE7FEE76D260008E6
:10012000ED000008D2B201E000F8012B491EFBD21D
:1001300070470022F6E710B513460A4604461946F2
:10014000FFF7F0FF204610BD10B5002200E0521C62
:10015000835C8C5CA34201D1002BF8D1D8B2E1B210
:10016000401A10BD80EA010210B502F000434000C1
:1001700022D04A001FD0010E01EB1261C0F35600DD
:10018000C2F3560240F4000042F40002A0FB022039
:1001900000047F39140400D0401C50EA124001D4FE
:1001A0004000491EC2B20C0604EBD010401C4008AF
:1001B000802A02D003E0002010BD20F001000029B9
:1001C00000DA0020184310BD30B480EA010202F0CA
:1001D000004530F0004221F0004013D090B1C30D33
:1001E000D40DC2F31601C0F31600E41A41F4000165
:1001F00040F400027D34914201D3641C00E04900C8
:10020000002C02DA30BC002070474FF400000023BD
:10021000914201D3891A034340084FEA4101F7D1C3
:1002200051B1914202D14FF0004105E002D24FF0AE
:10023000010101E06FF0010103EBC450284430BC20
:1002400000F07FBA2DE9FE4F804681EA0300C00F1F
:100250000C46009021F0004123F00045B8EB02006D
:10026000A94105D24046214690461C460B4602460F
:1002700023F00040104347D0270DC7F30A00C3F313
:100280000A510290401A019040286BDAC3F3130020
:1002900040F4801B0098924620B10023D2EB030A61
:1002A00063EB0B0B01985946C0F14002504600F039
:1002B00017FA06460D4650465946019A00F02FFAA5
:1002C00010EB08006141002487EA115284EAE773C9
:1002D0001A4340D0009A62B3019A012A4FEA0752AA
:1002E00015DC001B61EB02014FF0004202EA0752ED
:1002F000CDE90042001C41F5801132462B4600F04A
:1003000066FA03B0BDE8F08F40462146F9E7001BCE
:1003100061EB0201001C41F5801300185B412018BD
:10032000A2F5001747EB030140EAD570B6196D41FD
:1003300011E06D084FEA360645EAC0754FEA0752EC
:10034000001B61EB0201001C41F5801149084FEAD6
:1003500030000019514132462B4603B0BDE8F04F42
:1003600000F026BA0098012240000023D0EB0202E0
:1003700063EBE073009821464FEAE074B8EB0000AD
:1003800061EB0401E9E783F000435BE781F00041A2
:1003900058E72DE9FE4F81EA030404F0004421F000
:1003A000004100944FF0000B23F0004350EA010499
:1003B0005ED052EA03045BD0C3F30A54C1F30A557A
:1003C0002C44A4F2F3340194A0FB0254C1F31301B2
:1003D00041F48011C3F3130343F4801301FB02447F
:1003E00000FB034E840A970A44EA815447EA835784
:1003F000A4FB076802958D0A05FB07854FEA932C3D
:1004000004FB0C542705029D4FEA065847EA1637AD
:10041000B5EB08056EEB070C870E920E47EA8117C5
:1004200042EA8312A7FB0201B6EB0B0164EB000466
:100430002B0D43EA0C335E1844EB1C50DA46514650
:10044000E7FB0201C5F313044FEA0B3343EA1453ED
:100450004FEA0432019C43EA0603A4F10C0402941F
:10046000009CCDE900B400F0B2F903B0BDE8F08F14
:1004700000200146F9E72DE9F04D81EA030404F07C
:10048000004B21F0004514464FF0000A23F00041D4
:1004900050EA050220D054EA01021DD0C5F30A57E4
:1004A0000246C5F31303C1F31300C1F30A5640F427
:1004B000801543F48013A7EB0608101BD64608F2FC
:1004C000FD3873EB050002D308F1010801E0921832
:1004D0005B41B8F1000F03DA00200146BDE8F08D62
:1004E00000204FF48011064684460EE0171B73EB84
:1004F000050705D3121B63EB050306434CEA010C09
:1005000049084FEA300092185B4150EA0107EDD1EB
:1005100052EA030012D082EA040083EA050108438C
:1005200005D0101BAB4106D20122002306E00022B9
:100530004FF0004302E06FF0010253101AEB060087
:100540004CEB085110EB0A0041EB0B01BDE8F04DFC
:1005500000F02EB9002801DBC0F10040002901DBCA
:10056000C1F10041814201D901207047002070474C
:1005700096230022114600F0EDB80EB5C10F80EAB7
:10058000E0700844CA07002140F233438DE80E00B2
:100590000A460B4600F01BF903B000BD0EB540F251
:1005A000334102910021CDE900110A460B4600F0CB
:1005B0000EF903B000BD70B5C1F30A5201F0004559
:1005C0000024C1F3130140F2FF3341F480119A4239
:1005D00001DA002070BD40F233439A42A2F2334266
:1005E00003DC524200F08BF800E090402C43F1D045
:1005F000404270BD00F0004230F000400AD0C10D12
:1006000001F56071C0F3160042EA0151C2084007CB
:100610001143704700200146704701F0004330B499
:1006200021F0004150EA010206D00A0DA2F56072E5
:10063000C1F31301002A02DC30BC00207047440FD4
:1006400044EAC104C100E01830BC00EBC25000F025
:1006500078B830B50B46014600202022012409E07D
:1006600021FA02F59D4205D303FA02F5491B04FA6B
:1006700002F52844151EA2F10102F1DC30BD2DE97E
:10068000F05F0546002092469B4688460646814616
:1006900040241BE0284641464746224600F02FF8FA
:1006A00053465A46C01A914110D311461846224665
:1006B00000F016F82D1A67EB01084F46224601207C
:1006C000002100F00DF817EB00094E41201EA4F1A7
:1006D0000104DFDC484631462A464346BDE8F09F28
:1006E000202A04DB203A00FA02F1002070479140F2
:1006F000C2F1200320FA03F3194390407047202AE7
:1007000004DB203A21FA02F00021704721FA02F3BB
:10071000D040C2F120029140084319467047202A78
:1007200006DBCB17203A41FA02F043EAE07306E019
:1007300041FA02F3D040C2F1200291400843194629
:1007400070470029A8BF7047401C490008BF20F02F
:100750000100704710B4B0FA80FC00FA0CF050EAC7
:10076000010404BF10BC704749B1CCF1200421FA48
:1007700004F411FA0CF118BF012121430843A3EB43
:100780000C01CB1D4FEA00614FEA102042BF002050
:1007900010BC704700EBC35010440029A4BF10BC2C
:1007A0007047401C490008BF20F0010010BC704792
:1007B00010B5141E73F1000408DA401C41F1000169
:1007C00092185B411A4301D120F0010010BD2DE9C0
:1007D000F04D92469B4611B1B1FA81F202E0B0FAB7
:1007E00080F220329046FFF77BFF04460F4640EA36
:1007F0000A0041EA0B0153465A46084313D01146FA
:1008000053EA010019D0C8F140025046FFF777FFC4
:1008100005460E46504659464246FFF761FF0843DB
:1008200005D0012004E020463946BDE8F08D0020C7
:10083000054346EAE0762C4337430A986305E40A09
:10084000A0EB08000022FD0A44EA47540A3002D512
:1008500000200146E9E7010510196941DDE9084575
:1008600000196941BDE8F04DA2E7C1F30A52C1F396
:10087000130140F2FF3341F480119A4202DA002062
:100880000146704740F233439A42A2F2334202DCFF
:100890005242FFF734BFFFF723BF000030B5041EFC
:1008A00071F1000404DB4FF00044404264EB0101AD
:1008B000141E73F1000405DB1C464FF00043524246
:1008C00063EB04038B4208BF824230BD30B5041E87
:1008D00071F1000404DB4FF00044404264EB01017D
:1008E000141E73F1000405DB1C464FF00043524216
:1008F00063EB0403994208BF904230BD1CB5094820
:100900000090094801900546009C06E0E06840F030
:10091000010394E8070098471034AC42F6D3FFF780
:10092000E9FB0000C04A0008E04A000870B521F069
:10093000004303430CD0C1F30A550024D5EB040552
:1009400064EB0403D617AD1AB34102DB0020014665
:1009500070BD201841EB025170BD00008268002973
:1009600022F0010218BF01328260704782680029BC
:1009700022F4807218BF02F5807282607047000016
:100980008068C0F3800070478068C0F3C000704783
:1009900080B542684FF6FF63CFF6F07302EA030CAE
:1009A0000B680A7943EA0C0343EA02224260826838
:1009B0004FF2FD73CFF6F1731A40D1E902C391F8FB
:1009C00005E01A4342EA0C0242EA4E028260C26A21
:1009D000097C22F470020139C9B242EA0151C162B4
:1009E00080BD0000B0B501EB410C4FF0100E09299D
:1009F00088BFACF11E0C88BF4FF00C0E50F80E40B3
:100A0000072505FA0CF5AC4303FA0CF323432C2518
:100A10006FF0400440F80E300D2A38BF302538BF43
:100A20006FF0220402EB8203072A3CBF34256FF0EB
:100A300004041A1943591F249440A34391401943B5
:100A40004151B0BD816841F00801816070470000EC
:100A50008268002922F4A00218BF02F5A002826079
:100A600070470000816841F0040181607047000018
:100A700042F20841C4F201010A68002822F400028F
:100A800018BF02F500020A607047000002684FF6C6
:100A9000FE7C42F00103002908BF02EA0C03036058
:100AA0007047000002684FF6FE731A407F2304214E
:100AB000C4F20203C4F20201026000229842026002
:100AC00042608260C26016DC4322C4F2020290429D
:100AD0002CDC0822C4F20202904251D01C22C4F243
:100AE0000202904256D03022C4F2020290425ED1FD
:100AF0004FF4706058E040F22F42C4F2020290427C
:100B000026DC8022C4F2020290423BD040F208422E
:100B1000C4F2020290423FD040F21C42C4F20202F0
:100B2000904244D101F58061F0203DE04422C4F2BE
:100B30000202904236D05822C4F2020290421CD0E7
:100B40006C22C4F20202904231D14FF470002BE0CB
:100B500040F23042C4F20202904216D040F24442C7
:100B6000C4F2020290421BD040F25842C4F2020288
:100B7000904218BF704701F580614FF4702013E078
:100B80000F2011E04FF070600EE001F580614FF42E
:100B9000706009E0F02007E001F580610F2003E0BC
:100BA00001F580614FF470400A6810430860704797
:100BB0002DE9F047026847F6F073D1E9026A9A43DB
:100BC00001F11007B0CF01F11C0E3243D1E90089C9
:100BD0009EE80A501A4322432A433A43114341EA0A
:100BE0000C0141EA0E010160C0F804A0C0F80880C1
:100BF000C0F80C90BDE8F08702F090B82DE9F04FF6
:100C000083B040F2080AC2F2000ABAF900000021DB
:100C100040F23049B328C8BF4FF4B471C2F20009A2
:100C2000A1EB0001C8BFA0F5B47040F22E4699F8C0
:100C3000007040F22C42C2F20006C2F20002318083
:100C4000B7FA87F110804D0904B275201C210A22E1
:100C500000234FF00008002F18BF0127CDE9004501
:100C600000F0F8FAB6F90030752035210A22CDE9F6
:100C7000008700F0EFFABAF8000040F23146C2F205
:100C8000000605303178AAF8000000B20131B0F555
:100C9000B47F31700EDB99F800100120AAF8000033
:100CA00081F0010089F800006B20122132222E23EE
:100CB00000F092FA30780628C0F0DF8040F2184841
:100CC000C2F20008B8F8000000213170FFF766FC9E
:100CD0000B4643F233310246C4F2B3014FF03330D6
:100CE000FFF7C9FBFFF799FC40F21447C2F2000777
:100CF0003860FFF77FFC024662A00B4602F01AFA4A
:100D0000B8F80200FFF734FC3D6801462846FFF7BB
:100D100029FA4FF2000AC4F27F5A5146FFF754FAFB
:100D20000021C4F20C31FFF71DFA0021C4F2C821E2
:100D3000FFF74AFA29460646FFF70CFC40F2204925
:100D4000002818BF2E46C2F200093046C9F80060DC
:100D5000FFF750FC024650A00B4602F0EBF9B8F842
:100D60000400FFF705FC3968024608461146FFF704
:100D7000F9F95146FFF728FA40F22441C2F2000186
:100D80000860FFF737FC02460B4647F6E1204EF2BB
:100D90004711CAF61460C3F6F671FFF7F4FA4FF67E
:100DA000225249F6E043C7F2F652C3F67173FFF7D9
:100DB00062FB0023C4F239030022FFF743FAFFF776
:100DC0002CFC40F2344BC2F2000BCBF80000FFF7D2
:100DD00011FC024636A00B4602F0ACF9B8F806004A
:100DE000FFF7C6FB3968024608461146FFF7BAF915
:100DF0005146FFF7E9F940F22844C2F200042060AE
:100E0000FFF7F8FB02462EA00B4602F093F9386874
:100E1000FFF7F0FB06460D462FA300201421062203
:100E2000CDE9006501F056F9D9F80000FFF7E2FBC3
:100E300006460D462CA300201E210622CDE90065A2
:100E400001F048F9DBF80000FFF7D4FB06460D4639
:100E500029A3002028210622CDE9006501F03AF9F6
:100E60002068FFF7C7FB06460D4627A30020322166
:100E70000622CDE9006501F02DF903B0BDE8F04F81
:100E800001F0AEBA61645F56726566203D20253080
:100E90002E33660D0A00000061645F726573756C25
:100EA0007431203D2025302E33660D0A00000000ED
:100EB00074656D70203D2025302E33660D0A0000CC
:100EC00061645F726573756C7432203D2025302E2D
:100ED00033660D0A0000000050726F7765722020A3
:100EE0003A252B352E3366006164315F72657331AC
:100EF0003A252B352E33660074656D702020202036
:100F00003A252B352E3366006164315F726573328A
:100F10003A252B352E33660070B50120012500F0EF
:100F200061F8002808BF70BD48F2941645F24044AD
:100F3000C4F221260020C0F289043060204601F06E
:100F4000B9FE204601F0B6FE204601F0B3FE0120B6
:100F50003560BDE8704000F03FB80000B0B5022039
:100F600000F040F8002808BFB0BD48F2901545F2E7
:100F70004044C4F221250020C0F2890428602046A4
:100F800001F098FE204601F095FE01210220296023
:100F9000BDE8B04000F020B810B5102000F022F8F5
:100FA000002808BF10BD48F28C14C4F22124002090
:100FB000206044F64030C0F24C0001F07BFE44F269
:100FC0004020C0F20F0001F075FE012110202160C9
:100FD000BDE81040AFF3008040F21441C4F20101BB
:100FE0000860704740F20041C4F201010A68496993
:100FF0000240084018BF0120002A18BF01221040FB
:1010000070470000CA7802F00F0CD30644BF8B78FB
:101010004CEA030C2DE9F04709880B0624D08646DC
:101020005EF8143B00F1100800254FF0010A4FF064
:101030000F09002406E000BF37600134082C05F1D9
:10104000040510D00AFA04F70F42F6D009FA05F6A3
:10105000B3430CFA05F63343282A7646ECD0482AE7
:10106000EBD14646E8E70360B1F5807F38BFBDE8C5
:10107000F087436800F1100E00F1140A00254FF4C8
:1010800080794FF00F08002706E000BF2660013787
:10109000082F05F1040510D009FA07F60E42F6D024
:1010A00008FA05F4A3430CFA05F42343282A54460E
:1010B000ECD0482AEBD17446E8E74360BDE8F087FE
:1010C000B0B540F2040CC4F2010C0CF118031A463E
:1010D000B0F1FF3FC4BF0422C4F20102146800F45F
:1010E0004012B2F5401F1FFA80FE08D1DCF8005014
:1010F00024F0706225F07064CCF8004011E0C20268
:1011000006D46FF00F0202EA50420EFA02F204E037
:10111000C0F30342032505FA02F224EA020242F078
:1011200070626FF00F0404EA504400290EFA04F5CF
:1011300018BF2A43B0F1FF3FC8BF63461A60B0BD75
:10114000016170471023002A08BF1423C150704763
:1011500010B5C17800294EF20011CEF200011AD06C
:101160004EF60C52CEF200021268072323EA122236
:101170000F23C2F1040C23FA02F24378847890F82A
:1011800000E003FA0CF322401A43120101EB0E03B4
:1011900083F8002300E080310078012300F01F0273
:1011A00003FA02F2C0F3421041F8202010BD000003
:1011B00040F080604EF60C5140F0FD70CEF2000120
:1011C0000860704780B540F21000C2F200004FF492
:1011D0008061FEF7AEFF80BD2DE9F04147B2002FE0
:1011E00036D43F2934D85F18402F88BFC1F140035F
:1011F000DBB203EB0108884598BFBDE8F081171802
:101200006FF07F06802F88BF321AD2B240F2100EE4
:1012100002444FF0010CC2F2000E0C4604E000BF85
:101220000134E1B2884513D98242F9D904F00705A7
:101230000CFA05F5C908ED430EEBC1110746064649
:10124000CB5D01362B40CB55F7B2BA42F8D8E7E771
:10125000BDE8F0812DE9F04F8FB0189D0290104647
:101260009A460E919146FFF799F900220023804695
:101270000C4602F07BFD48F21F5241F6B863C5F2FE
:10128000EB12C4F20903FFF7F6F848F20003C4F2C8
:1012900066030022FFF77DF8FFF78DF9AA4502DA11
:1012A000824502DD1EE0824502DD1899814219DB8C
:1012B000029840B2002815D40E984844C1B23F2984
:1012C00010D840F2100300F0F801C2F20003029FB0
:1012D00003EB011100F007000122CB5D02FA00F0E0
:1012E0001843C855C9F100052846FFF746F9002202
:1012F000002306460F4602F039FD48F21F5241F620
:10130000B863C5F2EB12C4F20903FFF7B4F848F270
:101310000003C4F266030022FFF73BF8FFF74BF926
:1013200018998A4502DA824502DD1FE0824501DD17
:1013300081421BDB029840B2002817D40E98A0EB24
:101340000900C1B23F2911D840F2100300F0F801A2
:10135000C2F20003029A03EB011100F007004FF004
:10136000010C8B5C0CFA00F018438854002000211B
:101370004246234602F0FAFC48F21F5241F6B86397
:10138000C5F2EB12C4F20903FFF775F848F2000347
:10139000C4F266030022FEF7FCFFFFF70CF9189970
:1013A0008A4504DA029C8245C84604DD1FE0029C9F
:1013B0008245C84601DD814219DB0E983F2816D8C8
:1013C00008EB040040B2002811D40E9B40F2100438
:1013D00003F0070103F0F803C2F2000404EB031367
:1013E00001221C5C02FA01F12143029C19540020E5
:1013F000002132463B4602F0B9FC48F21F5241F64A
:10140000B863C5F2EB12C4F20903FFF734F848F2EF
:101410000003C4F266030022FEF7BBFFFFF7CBF820
:1014200018998A4502DA824502DD1CE0824501DD19
:10143000814218DB0E983F2815D8A4EB080040B273
:10144000002810D40E9B40F2100703F0070103F0B0
:10145000F803C2F2000707EB031301221F5C02FA34
:1014600001F1394319541998002849D04D4547DAFC
:10147000029848F21F5841F6B86B48F20006C5F2D0
:10148000EB18C4F2090BC4F2660644B2012703E06C
:10149000013528B2484533DA28B2FFF76EF800224A
:1014A000002302F063FC42465B46FEF7E4FF0022A5
:1014B0003346FEF76EFFFFF77EF818998A4503DA88
:1014C000824503DDE4E700BF824501DD8142DFDBC9
:1014D000002CDDD40E982844C1B23F29D8D840F260
:1014E000100200F0F801C2F20002029B02EB0111AF
:1014F00000F00700CA5C07FA00F01043C854C7E7C1
:10150000B9F1000F00F06883C9F101000026CDF8A1
:1015100024A008E0DDE90010039E00EB410001304B
:101520004E4580F259830FFA80F8A9F10100751C2D
:1015300001B2B8F1000F48BF48460FFA80F92846BB
:1015400058BF401A00904846FFF717F8044628B2E3
:101550000F46FFF712F802460B46204639460D9417
:101560000C97CDE9073202F001FC48F21F5241F618
:10157000B863C5F2EB12C4F20903FEF77CFF48F230
:1015800000030022C4F26603FEF703FFFFF713F81F
:1015900018998A4504DADDF808B0824504DD1FE0B9
:1015A000DDF808B0824501DD814219DB0BEB050057
:1015B00040B2002814D40E994944CAB23F2A0FD829
:1015C00040F2100301F0F802C2F2000303EB021232
:1015D00001F00701135C012707FA01F119431154C7
:1015E000DDE90710DDE90C3202F0C0FB48F21F52C2
:1015F00041F6B863C5F2EB12C4F20903FEF73BFFF4
:1016000048F200030022C4F26603FEF7C2FEFEF7B2
:10161000D2FF1899CDF804808A4503DA824503DDAC
:101620001EE000BF824501DD814219DB0E9828448F
:10163000C1B23F2914D80BEB090149B200290FD4DC
:1016400040F2100300F0F802C2F2000303EB0212B2
:1016500000F00700535C012707FA00F018435054CC
:10166000C9F1000004B22046CDE90356F543FEF768
:1016700084FF074628B28846FEF77FFF02460B46E6
:10168000384641460B97CDF82880CDE9053202F067
:101690006DFB48F21F5241F6B863C5F2EB12C4F27B
:1016A0000903FEF7E8FE48F200030022C4F26603D5
:1016B000FEF76FFEFEF77FFF18998A4504DA039E56
:1016C0008245D84604DD20E0039E8245D84601DDF0
:1016D00081421ADBA8EB060040B2002815D40E990F
:1016E000A1EB0901CAB23F2A0FD840F2100301F062
:1016F000F802C2F2000303EB021201F00701135CCF
:10170000012707FA01F119431154DDE90510DDE95C
:101710000A3202F02BFB48F21F5241F6B863C5F2C1
:10172000EB12C4F20903FEF7A6FE48F20003002202
:10173000C4F26603FEF72DFEFEF73DFF18998A45B9
:1017400002DA824502DD1DE0824501DD814219DBBE
:101750000E98801BC1B23F2914D8A8EB090149B2E9
:1017600000290FD440F2100300F0F802C2F2000387
:1017700003EB021200F00700535C012707FA00F0A8
:1017800018435054DDE90A10DDE9073202F0EEFAA1
:1017900048F21F5241F6B863C5F2EB12C4F20903D6
:1017A000FEF769FE48F200030022C4F26603FEF76A
:1017B000F0FDFEF700FF18998A4503DA824503DD44
:1017C0001FE000BF824501DD81421ADB08EB060005
:1017D00040B2002815D40E99A1EB0901CAB23F2AE4
:1017E0000FD840F2100301F0F802C2F2000303EB3D
:1017F000021201F00701135C012707FA01F11943F6
:101800001154DDE90510DDE90C3202F0AFFA48F2BF
:101810001F5241F6B863C5F2EB12C4F20903FEF79A
:101820002AFE48F200030022C4F26603FEF7B1FD6F
:10183000FEF7C1FE18998A4502DA824502DD1DE0F5
:10184000824501DD814219DB0E98801BC1B23F2920
:1018500014D808EB090149B200290FD440F2100353
:1018600000F0F802C2F2000303EB021200F00700DE
:10187000535C012707FA00F018435054DDE90C10BF
:10188000DDE9053202F072FA48F21F5241F6B86300
:10189000C5F2EB12C4F20903FEF7EDFD48F20003B6
:1018A0000022C4F26603FEF774FDFEF784FE189969
:1018B0008A4503DA824503DD1EE000BF824501DD73
:1018C000814219DBA8EB060040B2002814D40E991F
:1018D0004944CAB23F2A0FD840F2100301F0F8027F
:1018E000C2F2000303EB021201F00701135C0127AF
:1018F00007FA01F119431154DDE90710DDE90A3255
:1019000002F034FA48F21F5241F6B863C5F2EB1206
:10191000C4F20903FEF7AFFD48F200030022C4F24F
:101920006603FEF736FDFEF746FE18998A4505DA8E
:10193000DDF810B0824505DD21E000BFDDF810B014
:10194000824501DD81421ADB0E9803990844C1B239
:101950003F2914D8A8EB090149B200290FD440F25D
:10196000100300F0F802C2F2000303EB021200F0D1
:101970000700535C012707FA00F0184350541998E8
:1019800000283FF4C7ADA14540F39680DDE902127F
:101990002746881840B20490881A46B205E000BF76
:1019A0007C1C27B24F4580F2878038B2CA46FEF7CA
:1019B000E4FDDDE907328046894602F0D7F948F2B6
:1019C0001F5241F6B863C5F2EB12C4F20903FEF7E9
:1019D00052FD48F200030022C4F26603FEF7D9FC70
:1019E000FEF7E9FD1899099A8A4203DA824203DD7B
:1019F00021E000BF824201DD81421CDB0498002807
:101A000019D40E982044C1B23F2914D840F21002D4
:101A100000F0F801C2F20002B4462646049C02EB34
:101A2000011100F007000A5D012303FA00F01043E2
:101A3000085534466646DDE905324046494602F01F
:101A400095F948F21F5241F6B863C5F2EB12C4F2A1
:101A50000903FEF710FD48F200030022C4F26603FA
:101A6000FEF797FCFEF7A7FD1899099A8A4203DA58
:101A70008242D14603DD93E78242D14601DD8142B5
:101A80008EDB002E3FF58CAF0E982044C1B23F296B
:101A90003FF686AF40F2100200F0F801C2F20002F9
:101AA00002EB011100F007008A5D012303FA00F048
:101AB0001043885574E700BF0299DDF824A0A1EB1C
:101AC00009004FFA80F801EB090044B206E000BFBC
:101AD000013528B2BB468742FFF61CAD28B2FEF79F
:101AE0004CFDDDE90A3207460E4602F03FF948F2A6
:101AF0001F5241F6B863C5F2EB12C4F20903FEF7B8
:101B0000BAFC48F200030022C4F26603FEF741FC6F
:101B1000FEF751FD18998A4502DA824502DD1DE083
:101B2000824501DD814219DBB8F1000F16D40E9811
:101B30002844C1B23F2911D840F2100200F0F80148
:101B4000C2F2000202EB011100F0070011F80820B8
:101B5000012303FA00F0104301F80800DDE90C321C
:101B60003846314602F002F948F21F5241F6B86396
:101B7000C5F2EB12C4F20903FEF77DFC48F2000344
:101B80000022C4F26603FEF704FCFEF714FD189968
:101B90008A4503DA82455F4603DD99E782455F4661
:101BA00001DD814294DB002C92D40E982844C1B20E
:101BB0003F293FF68DAF40F2100200F0F801C2F26B
:101BC000000202EB011100F007000A5D012303FA95
:101BD00000F0104308557BE70FB0BDE8F08F000020
:101BE0002DE9F04F84B0994222D11346904238BF7C
:101BF000034688BF024601F00700012740F21006A5
:101C000007FA00F0CF08C2F2000606EBC71704E09F
:101C10009EB20133964280F005813F29F8D813F037
:101C20008006F5D103F07F06BD5D0543BD55EFE7A6
:101C3000904224D11A4640F21005994238BF0A4614
:101C400088BF0B4641B24FF0010C6FF0700EC2F22C
:101C5000000504E094B201329C4280F0E380002948
:101C6000F8D4D4B23F2CF5D804F007070EEA0414D8
:101C70002C44265C0CFA07F73E432654EAE702D9C7
:101C800091461F4603E081460F46104619463A46E4
:101C90000B468F4284BF52425B429E1AA0EB09055D
:101CA000B542CDE9005602DA94461A4603E0CC4626
:101CB000914602461846DDE900560023B5424FF032
:101CC0000004B8BF01248F4288BF01232340012BA9
:101CD0000393029709D1CCF10003DCB23F2C3AD830
:101CE00019F080044C4623D035E08F4209D95FEAD1
:101CF0000C6330D4C9F10003DCB23F2C644617D921
:101D000029E0DDE900639E4209DA5FFA8CF33F2B9C
:101D100021D819F080034C46634609D01BE05FEAE6
:101D20000C6318D45FFA89F33F2B64464B4612D8F4
:101D300040F2100703F0F806C2F2000704F07F0437
:101D400007EB061603F007034FF00108375D08FAAA
:101D500003F33B4333550FFA8CF30FFA82FA9A459B
:101D600060DDA2EB0C02A0EB0903A3EB020BC2EBBC
:101D700043074FEA430E012614E000BF40F2100370
:101D800004F0F800C2F2000308F07F0503EB001036
:101D900004F00704435D06FA04F423434355D44595
:101DA00017443FDA3AB2B2F1FF3F7246C4BF4FEA7E
:101DB0004B0209F1010903980CF1010564460FFA81
:101DC00085FC48B1E5B2C02DE9D319F08005E6D114
:101DD000E443C846D2E700BF029888420AD95FEAC6
:101DE0000C64DCD4C9F10004E5B23F2DE046C5D94E
:101DF000D5E700BFDDE90030834209DA5FEA096414
:101E0000CDD45FFA8CF43F2CC8466446B6D9C6E7F9
:101E10005FEA0C64C3D45FFA89F43F2CE0464C4679
:101E2000ACD9BCE704B0BDE8F08F00002DE9F04F5D
:101E300087B0129EDDE9105407468C46002EADF89F
:101E40001600ADF81820ADF81A50ADF81010ADF826
:101E50001230ADF8144000F08780BA42384638BFDF
:101E60001746BD4238BF2F466345614638BF194605
:101E70008C4238BF21468242009188BF104685427D
:101E800088BF28460190634588BF9C4604AA0DF18F
:101E9000160B644588BFA446CDF80CC006E000BF11
:101EA000029F01980137F9B281425AD80297DDF8B2
:101EB00000A05FFA87F906E00AF1010A03985FFAC9
:101EC0008AF18142ECD85FFA8AF5022700240023C8
:101ED00003E000BF7C1C032C28D03846274632F98B
:101EE000144000B232F910C0AC424FF0000EC8BF2F
:101EF0004FF0010EAC454FF00008D8BF4FF001087D
:101F00009EEA080FE6D13BF910003BF91760291B48
:101F1000801B4843ACEB040190FBF1F03044484592
:101F2000C2BF98B2B0FA80F04309D3E71806C3D015
:101F3000029840B20028BFD43F2DBDD840F2100314
:101F40000AF0F800C2F2000303EB00100AF00701E8
:101F500010F80930012707FA01F1194300F80910B8
:101F6000AAE707B0BDE8F08F384661463E466746AF
:101F700090469946FFF734FE304639462A462346B6
:101F8000FFF72EFE404649462A46234607B0BDE8E5
:101F9000F04FFFF725BE000070B540F6004405463F
:101FA000C4F20104002600BF05FA06F0C0B2C2095F
:101FB00020464FF40071FFF7C5F820464FF48071BA
:101FC0000122FFF7BFF820464FF480710022FFF78F
:101FD000B9F80136082EE7D120464FF4807101226E
:101FE000FFF7B0F820464FF480710022BDE8704042
:101FF000FFF7A8B8B0B582B00820012100F0CAFAF6
:1020000040F2001040F60044C1F20340C4F2010463
:1020100001AD019020462946FEF7F4FF4FF4007011
:10202000ADF8040020462946FEF7ECFF20464FF4A9
:1020300080710122FFF786F820464FF400710122DB
:10204000FFF780F8AE2000F0E7F9D52000F0E4F9C2
:10205000802000F0E1F9A82000F0DEF93F2000F038
:10206000DBF9D32000F0D8F9002000F0D5F94020AA
:1020700000F0D2F9A12000F0CFF9C82000F0CCF98F
:10208000DA2000F0C9F9122000F0C6F9812000F032
:10209000C3F9CF2000F0C0F9D92000F0BDF9F1203C
:1020A00000F0BAF9DB2000F0B7F9302000F0B4F905
:1020B000A42000F0B1F9A62000F0AEF98D2000F0C8
:1020C000ABF9142000F0A8F9AF2000F0A5F902B098
:1020D000B0BD00002DE9F04F8BB00DF10E08144695
:1020E0008B46064614AA40461946029201F032F881
:1020F0009DF80E0058B344F2722944F2AC4A00270E
:10210000C0F60009C0F6000A12E000BF00EB400074
:1021100009EB4000A0F1C005C8B2594606220823C9
:10212000009500F08DF80137F8B218F8000070B192
:1021300007FB0461062CE9D0082CF4D10AEB00104F
:10214000A0F50075C8B2594608221023E8E70BB085
:10215000BDE8F08F80B582B0062B0CD0082B1AD1C9
:1021600044F2AC43C0F6000303EB0212A2F5007C7C
:10217000082210230BE044F2722302EB4202C0F665
:10218000000303EB4202A2F1C00C06220823CDF8A3
:1021900000C000F055F802B080BD00002DE9F04FFE
:1021A00083B001911178934600220029029244D015
:1021B00043F6EA75A0F110094FF0000A02AEC0F62E
:1021C00000050024002006E0013001345FFA84FAA3
:1021D0001BF80A1089B302283154F5D32878A8B126
:1021E0004FF000082F4600BF38463146FDF7ACFFE0
:1021F00068B108F101085FFA88F000EBC00015F83B
:10220000201005EB80070029EED100E02F464AF6AA
:10221000AB210AF10100CAF6AA21A0FB010101F0DD
:102220001E0009EBC00001990437C0B21022102330
:10223000009700F005F80020C7E703B0BDE8F08F75
:102240002DE9F04F82B047B2002F01D43F2902D9C7
:1022500002B0BDE8F08F5F18402F1F46019388BF82
:10226000C1F14007FFB29FB307EB010817186FF0E9
:102270007F06802F174688BF371AFEB206EB000B89
:102280004FEA076901230D468A4605E00AF1010A73
:102290005FFA8AF5A8451BD9B9F1000FF6D00AF00C
:1022A000070403FA04F440F210076FEA040EEC0886
:1022B000C2F2000707EBC4150646044615F806C02F
:1022C00001340CEA0E07AF55E6B2B345F6D8DDE7A8
:1022D000019B01F0070C013B03EB5373DB100193EF
:1022E000CB08CCF1080A00244FF0000B009306E065
:1022F0000BF1010B01995FFA8BF4A142A8DB002AD4
:10230000F6D0009E5FFA8BF340F21001F718C2F28C
:10231000000101EBC7190B9904EB060802FB03133C
:102320000025064607E000BF0135E9B201369142BB
:1023300003F10103DCD27F2EDAD8B8F1070F3FF6A4
:1023400087AF197819F806E001FA0CF141EA0E019D
:10235000B8F1070F09F80610E6D0197809EB060462
:1023600094F8807021FA0AF1394384F88010DBE791
:102370002DE9F04F81B09346127872B344F272297E
:1023800044F2AC4A1C46884607460026C0F60009BF
:10239000C0F6000A12E000BF02EB420109EB410166
:1023A000A1F1C005C0B24146062208230095FFF7FF
:1023B00047FF0136F0B21BF8002072B106FB047033
:1023C000062CE9D0082CF4D10AEB0211A1F5007516
:1023D000C0B2414608221023E8E701B0BDE8F08F03
:1023E000B0B540F210040025C2F2000445F0B00080
:1023F000C0B200F011F8102000F00EF8002000F03C
:102400000BF82046802100F061F80135082D04F119
:102410008004EBD1B0BD000070B540F60044C4F2BA
:102420000104054620464FF400710122FEF78AFEA2
:1024300020464FF480710122FEF784FE20464FF4BF
:1024400000710022FEF77EFE20464FF480710022CC
:10245000FEF778FE7820FFF79FFD082620464FF410
:1024600000710022FEF76EFE20464FF480710122BB
:10247000FEF768FE20464FF480710022FEF762FEF0
:10248000013EEBD120464FF480710122FEF75AFE47
:1024900020464FF480710022FEF754FE2846FFF7D5
:1024A0007BFD20464FF400710022FEF74BFE2046D4
:1024B0004FF480710122FEF745FE20464FF4007173
:1024C0000122BDE87040FEF73DBE000070B540F649
:1024D0000044C4F201040D46064620464FF4007144
:1024E0000122FEF72FFE20464FF480710122FEF7F5
:1024F00029FE20464FF400710022FEF723FE2046FD
:102500004FF480710022FEF71DFE7820FFF744FD96
:102510004020FFF741FD3DB1013E00BF16F8010F1D
:10252000FFF73AFD013DF9D120464FF4007100223A
:10253000FEF708FE20464FF480710122FEF702FEEE
:1025400020464FF400710122BDE87040FEF7FABD4D
:1025500041F20401C4F202010A6822F4404210432D
:1025600008607047002941F21401C4F202010A68B0
:102570000CBF22EA0000104308607047002941F2B6
:102580001C01C4F202010A680CBF22EA00001043D9
:1025900008607047002941F21801C4F202010A687C
:1025A0000CBF22EA000010430860704710B541F2EA
:1025B0000404C4F20204226802F00C02082A41F268
:1025C0000022C0F27A0212D12368D4F800C0C3F30B
:1025D000834E5FEACC330EF1020C02D523689B03D5
:1025E00003D540F60012C0F23D020CFB02F202607D
:1025F000226843F6D473C2F30312C0F600039A5C58
:102600000168D14041602268C2F302229A5C21FA3B
:1026100002F282602268C2F3C2229A5C43F6D0734F
:10262000D140C1602268C0F60003C2F381329A5CD7
:10263000B1FBF2F1016110BDB0B50446007800288D
:1026400008BFB0BD43F60005C4F20105C1B228467B
:1026500000F052FA2846802100F0B6F90028F9D09F
:1026600014F8010F0028F1D1B0BD000082B041F292
:102670000400C4F2020050F8041C002241F00101E1
:1026800040F8041C0168CFF6FF021140016050F8C9
:10269000041C4FF6FF72CFF6F662114040F8041C9E
:1026A00050F8041C21F4802140F8041C016821F436
:1026B000FE0101604FF41F01416000210191009172
:1026C00050F8041C41F4803140F8041C50F8041CFC
:1026D00001F400310091019901310191009919B97A
:1026E0000199B1F5A06FF1D150F8041CC1F340413C
:1026F00000910099012936D142F20001C4F2020191
:102700000A6842F010020A600A6822F007020A60B2
:102710000A6842F002020A60016801600168016013
:10272000016841F480610160016821F47C1101605D
:10273000016841F4E811016050F8041C41F0807117
:1027400040F8041C50F8041C8901FBD5016821F0F5
:1027500003010160016841F002010160016801F0BC
:102760000C010829FAD14EF60850CEF200004FF0C5
:102770000061016002B0704710B542F60044C4F237
:1027800001042046012100F06BF8002808BF10BDAD
:1027900040F2BC12C4F221221068012180F0010332
:1027A00020461360BDE8104000F04CB880B54FF0F3
:1027B0008040012100F054F8002808BF80BD40F29D
:1027C0001042C2F200021078012180F001034FF0A4
:1027D00080401370BDE8804000F034B810B540F27E
:1027E0000044C4F200042046012100F039F800281A
:1027F00008BF10BD48F28C12C4F2212210680121DA
:1028000080F0010320461360BDE8104000F01AB8C4
:1028100010B540F60004C4F200042046012100F087
:102820001FF8002808BF10BD48F29012C4F2212200
:102830001068012180F0010320461360BDE81040BC
:10284000AFF30080C943018270470000028800296D
:1028500018BF012122F001021144018070470000DD
:10286000028A80890A4000EA010018BF012200287C
:1028700018BF012010407047002A82890CBF22EA4D
:10288000010111438181704740F6FF33B0F800C069
:10289000C4F2000398420FDCB0F1804F1ED040F22A
:1028A0000043C4F20003984218D040F60003C4F27B
:1028B0000003984212D016E040F60043C4F2000331
:1028C00098420BD043F20043C4F20103984205D072
:1028D00042F60043C4F20103984204D14B882CF025
:1028E000700243EA020C41F2004240F48063C4F2F9
:1028F0000002934204D0CA882CF4407342EA030CCD
:10290000A0F800C08A888285A0F18042A2F59632A4
:102910000B884FEAB222072A038507D8012303FA5E
:1029200002F212F0E50F1CBF097A018601218182B3
:102930007047000010B543F60004C4F201042046BD
:1029400040F2255100F046F8002808BF10BD20468F
:1029500000F0CEF8422815D003280AD0012819D15A
:1029600048F28C10C4F22120816881F0010181605D
:1029700010E048F28C10C4F22120016881F00101BE
:10298000016007E048F28C10C4F22120416881F018
:1029900001014160204640F22551BDE8104000F0A1
:1029A00001B80000090A012202FA01F1C9430180BD
:1029B000704700008289002918BF012122F40052CB
:1029C00042EA4131818170470088084018BF0120E8
:1029D00070470000C1F342121423022A08BF1023DB
:1029E000012A08BF0C2301F01F02C35A090A4FF045
:1029F000010C00880CFA01F1084023FA02F118BF1B
:102A00000120084070470000C1F3421301F01F0C81
:102A10001421022B08BF1021012B4FF0010308BF26
:102A20000C21002A03FA0CF243580CBF23EA0202DD
:102A30001A4342507047000070B586B00446008AC1
:102A40000D46C98820F4405008432082A0894EF6E4
:102A5000F3110840A9882A896B8908431043184359
:102A6000A081A08AA98920F44070084301AEA08209
:102A70003046FFF79BFD43F6000106F10800C4F263
:102A800001018C4208BF06F10C0000681922B4F95C
:102A90000C1050432A680123B1F1FF3FC8BF022345
:102AA00002FA03F1B0FBF1F048F21F51C5F2EB114D
:102AB000A0FB01235A096FF0630302FB0300B4F982
:102AC0000C300326B3F1FF3FC8BF042600FA06F01E
:102AD00000F13200A0FB01014FF00700C8BF0F203A
:102AE00000EA511040EA0210208106B070BD0000DB
:102AF00080886FF35F2070476FF35F21818070479C
:102B000070B586B005200121FFF744FD4FF48040E9
:102B10000121FFF73FFD43F600044FF48060C4F24B
:102B20000104ADF804000420A4F5405501AE8DF871
:102B3000070028463146FEF765FA40F20020C1F64C
:102B40000300019028463146FEF75CFA4FF4E1306D
:102B5000029000204FF4402103900491ADF814003E
:102B600002A92046FFF768FF2520C0F20010009060
:102B70006846FEF7EDFA204640F225510122FFF7A4
:102B800043FF20460121FFF715FF06B070BD00008E
:102B90002DE9F04192B042F200444FF40040C4F2FB
:102BA0000104FFF7D5FC40F2046001214FF0010859
:102BB000FFF7F0FC01200121FFF7D4FC0E20ADF857
:102BC00044000027A4F5E05011A98DF84770FEF7E6
:102BD00019FA0825C4F202052846FDF763FF42F200
:102BE0004C40C4F20100019040F21840C2F20000D3
:102BF000CDE90207802006904FF4807007904FF4D3
:102C000080600890202009904FF400500426CDE900
:102C10000A0701A92846CDE90467FDF7C9FF284640
:102C20000121FDF733FF4FF46020CDE90E070CA919
:102C300020460C97ADF834808DF84060FDF7A8FE73
:102C40002046112101220723FDF7CCFE2046012159
:102C500002220523FDF7C6FE204602210422052399
:102C6000FDF7C0FE2046102103220723FDF7BAFE20
:102C700020460121FDF77AFE0120FDF7F9FE2046EE
:102C80000121FDF76BFE2046FDF7DCFE2046FDF737
:102C90007BFE0028FAD12046FDF7E4FE2046FDF732
:102CA0006FFE0028FAD120460121FDF7D1FE12B0B7
:102CB000BDE8F08170470000002808BF704780B56C
:102CC0004EF2100141F63F1CCEF200010022C0F28C
:102CD000010C4FF0050E00BF0A60C1F804C08A6005
:102CE000C1F800E00B68DB03FCD5013803040A607F
:102CF000F2D1BDE880407047B0B543F60005C4F29C
:102D000001050446C1B22846FFF7F6FE2846802199
:102D1000FFF75AFE0028F9D02046B0BD42F200402D
:102D2000C4F201000121FDF793BE000070B582B02E
:102D3000102001210126FFF72DFC42F2000041F294
:102D40000004C1F20300C4F2010401AD0190204669
:102D50002946FEF757F920464FF40051FEF7F0F9E7
:102D600009200121FFF716FC40F20020C0F23000DC
:102D70000121FEF7A5F93820C1F203000190A4F566
:102D800080602946FEF73EF948F28C10C4F22120FB
:102D900086604660066002B070BD000084B04FF4EB
:102DA000FA70FFF789FFFFF725F9FEF70BFA00F03D
:102DB0008FF9FFF7BBFF4FF4A060FEF7F9F9FFF7BB
:102DC000E7FEFFF79DFE0A200127CDE90000002065
:102DD0000A21052205230297FFF728F844F6B922B5
:102DE000C0F600020A2000210823FFF7C1FA8FA2D3
:102DF00037200021FFF7D2F98EA25A20082106239E
:102E0000FFF7B6FAFFF7ECFA44F69C20C0F6000094
:102E1000FFF712FC44F6AB20C0F6000001F074F896
:102E200040F21844C2F200042088FDF7B7FB0B46BD
:102E300043F233310246C4F2B3014FF03330FDF7B1
:102E40001AFBFDF7EAFB40F21447C2F200073860B4
:102E5000FDF7D0FB024679A00B4600F06BF96088C5
:102E6000FDF786FB3D6801462846FDF77BF94FF2EA
:102E70000008C4F27F584146FDF7A6F90021C4F2CC
:102E80000C31FDF76FF90021C4F2C821FDF79CF960
:102E900029460646FDF75EFB40F22049002818BF90
:102EA0002E46C2F200093046C9F80060FDF7A2FBC9
:102EB000024667A00B4600F03DF9A088FDF758FBDD
:102EC0003968024608461146FDF74CF94146FDF7C0
:102ED0007BF940F22441C2F200010860FDF78AFB51
:102EE00002460B4647F6E1204EF24711CAF614603F
:102EF000C3F6F671FDF747FA4FF6225249F6E04362
:102F0000C7F2F652C3F67173FDF7B5FA0023C4F2A7
:102F100039030022FDF796F9FDF77FFB40F2344AB2
:102F2000C2F2000ACAF80000FDF764FB02464EA098
:102F30000B4600F0FFF8E088FDF71AFB39680246FF
:102F400008461146FDF70EF94146FDF73DF940F2FE
:102F50002844C2F200042060FDF74CFB024646A064
:102F60000B4600F0E7F83868FDF744FB06460D46CF
:102F700047A3002014210622CDE90065FFF7AAF837
:102F80006220142156220623FFF7E4F8D9F8000046
:102F9000FDF730FB06460D4641A300201E21062208
:102FA000CDE90065FFF796F862201E215622062320
:102FB000FFF7D0F8DAF80000FDF71CFB06460D46D7
:102FC0003BA3002028210622CDE90065FFF782F807
:102FD00043F6E477C0F60007622028210622082382
:102FE0000097FFF72DF92068FDF704FB06460D4614
:102FF00033A3002032210622CDE90065FFF76AF8ED
:103000006220322156220623FFF7A4F8FFF7E8F9E1
:1030100040F21044C2F2000402E000BFFDF7EEFDF2
:1030200020780028FAD1FDF7E7FDF9E7E59880E57B
:103030009880000056312E312E31000061645F56B9
:10304000726566203D2025302E33660D0A00000093
:1030500061645F726573756C7431203D2025302E7C
:1030600033660D0A0000000074656D70203D202558
:10307000302E33660D0A000061645F726573756CF3
:103080007432203D2025302E33660D0A00000000EA
:1030900050726F77657220203A252B352E336600EB
:1030A0006164315F726573313A252B352E336600CA
:1030B00074656D70202020203A252B352E33660054
:1030C0006164315F726573323A252B352E336600A9
:1030D00080B584B001200121FFF750FA41F61F406E
:1030E000ADF806000020ADF80C004FF4C6000290C9
:1030F0000DF106014FF08040FFF7C6FB4FF0804016
:103100000121FFF79FFB1C20C0F20110CDF8020047
:103110000DF10200FEF71CF84FF080400121012262
:10312000FFF7AAFB4FF080400121FFF78FFB04B0AF
:1031300080BD00000FB4054B10B503A9044A0298E6
:1031400000F068F910BC5DF814FB0000F92C0008D1
:103150000000002037B514460846064B6A46214653
:1031600000F058F904466946002000F0EAFC2046C9
:103170003EBD0000433B0008490050EAC12018BF93
:1031800004204A0D18BF40F0010040F2FF72B2EB7C
:10319000515F08BF40F00200012808BF05207047BA
:1031A0002DE9F0414F1E00EBC7010446D1E90001B3
:1031B00015461E4637F006020DD02A463346FDF767
:1031C000E8F87F1E04EBC703D3E90023FDF73AF8C4
:1031D00037F00602F1D1022F25D0042F13D0062F8D
:1031E00018BFBDE8F0812A463346FDF7D2F8D4E98E
:1031F0000A23FDF727F82A463346FDF7CAF8D4E933
:103200000823FDF71FF82A463346FDF7C2F8D4E934
:103210000623FDF717F82A463346FDF7BAF8D4E936
:103220000423FDF70FF82A463346FDF7B2F8D4E938
:103230000223FDF707F82A463346FDF7AAF8D4E93A
:103240000023BDE8F041FCF7FDBF0122FDF76EBB96
:10325000FCF7F8BF024A00201107FDF767BB00002A
:1032600001FDFFFF02E008C8121F08C1002AFAD1C1
:1032700070477047002001E001C1121F002AFBD1F6
:1032800070470000014908607047000004000020FA
:103290002DE9FF5F82B00021DDE90430020DDDF889
:1032A00040B0034318D044F61050A2F2FF3242431C
:1032B0001514119801281FD0A5EB0B00401C5FEAE4
:1032C000000A4FF000064E4FDFF83891B0465046E6
:1032D00015D5CAF1000413E0119801244AA301286E
:1032E00001D16FEA0B010298119AC0E90031C0E9DF
:1032F000024206B0BDE8F09FCBF10000DFE70446D4
:103300000021404A491842EB0450CDE9001012E078
:10331000E00707D032463B4640464946FDF739F8BC
:103320008046894632463B4610461946FDF731F83D
:1033300006460F466410002CEAD1DDE90401DDE900
:103340000023BAF1000F06DAFDF723F842464B4698
:10335000FDF71FF805E0FDF78EF842464B46FDF7F6
:103360008AF804460E460022284BFDF7AFFA03D830
:103370004FF0FF30014607E00022254B2046314642
:10338000FCF760FFFDF771FA102409E0002C0ADB5E
:103390000A220023FDF773F9039B30321A55641E8D
:1033A00050EA0102F2D1641C039AC4F111031444DF
:1033B000119A012A03D0012208430DD10AE00843E3
:1033C00004D000204FF0110B119072E7A3EB0B0516
:1033D0006D1E0DE05B4504DD4FF0000205F10105B7
:1033E00004E003DA4FF00002A5F10105002AECD059
:1033F00002981199C0E90231C0E9004579E700005F
:10340000000014400000F03F300000000000F043D6
:103410000000E03F2DE9FF4F95B09B4689460646E8
:1034200000250FE2252877D100242746F84A0121FC
:10343000059400E0044316F8013F203B01FA03F035
:103440001042F7D130782A2811D06FF02F0330784E
:10345000A0F13002092A16D8059A44F0020402EBC2
:10346000820203EB42021044761C0590EFE759F804
:10347000042B0592002A03DA504244F400540590CC
:1034800044F00204761C30782E2816D116F8010F6D
:1034900044F004042A280DD06FF02F023078A0F1F8
:1034A0003003092B09D807EB870302EB4303C71846
:1034B000761CF3E759F8047B761C30786C280FD023
:1034C00006DC4C2817D068280DD06A2814D104E0F7
:1034D000742810D07A280FD10DE044F400140AE0CB
:1034E00044F4801401E044F440147278824202D122
:1034F00004F58014761C761C307866280BD013DC1B
:10350000582877D009DC002875D04528F6D0462801
:10351000F4D047281AD19DE118E0632835D06428FB
:1035200079D0652812D195E1702873D008DC67281E
:10353000F1D069286FD06E280DD06F2806D1B5E084
:1035400073282CD0752875D0782874D05A461799CE
:1035500090476D1C75E1C4F30250022809D003287E
:103560000DD0D9F8001004280DD00D6009F1040920
:1035700067E1D9F80010EA17C1E90052F6E7D9F877
:1035800000100D80F2E70D70F0E719F8041B8DF8BC
:10359000001000208DF80100EA46012003E059F8F0
:1035A00004AB4FF0FF3061074FF0000102D40DE093
:1035B00008F101018846B9420FDA8045F8DB1AF8B4
:1035C00008100029F4D108E008F101018846814281
:1035D000FADB1AF808100029F6D105985B46A0EB33
:1035E000080721463846179A00F094FA284400EB61
:1035F000080507E04DE029E10DE01AF8010B5A46F5
:1036000017999047B8F10108F7D25B462146384632
:10361000179A13E142E00A220092C4F302524FF0DB
:10362000000A022A08D059F804CB032A4FEAEC71A9
:103630000AD00DE029E02AE009F1070121F0070294
:10364000F2E802C1914609E00FFA8CFC4FEAEC71F6
:10365000042A03D14FFA8CFC4FEAEC71002907DAF7
:103660000A460021DCF1000C61EB02012D2202E090
:10367000220504D52B228DF80420012203E0E20765
:1036800001D02022F7E7904659E00A2102E01022FB
:103690000DE010214FF0000A00910BE010224FF0D6
:1036A000000A44F004040827009203E008224FF0C7
:1036B000000A0092C4F30252022A05D059F804CB42
:1036C0000021032A08D009E009F1070121F00702CF
:1036D000F2E802C1914605E01FFA8CFC042A01D1F0
:1036E0000CF0FF0C4FF00008220728D5702806D0F8
:1036F000009B83F0100353EA0A0305D00EE040223A
:103700008DF80420012208E05CEA010206D0302294
:103710008DF804208DF8050002229046009B83F06E
:10372000080353EA0A030AD15CEA010201D16207E5
:1037300005D530228DF804204FF001087F1E58284F
:1037400004D034A003900EA802900DE036A0F9E753
:1037500053466046009AFCF792FF84460398825CC9
:103760000298401E029002705CEA0100F0D10298BB
:1037700006A9081A00F1200A600702D524F4803453
:1037800000E00127574502DDA7EB0A0000E000201A
:1037900000EB0A01009005984144401A0590E003AF
:1037A00006D45B462146179A059800F0B3F9054404
:1037B000002706E001A85A46C05D179990476D1C86
:1037C0007F1C4745F6DBE0030CD55B462146179A84
:1037D000059800F09FF9054404E030205A461799F7
:1037E00090476D1C0099481E00900029F5DC08E008
:1037F000029802995A460078491C029117999047FD
:103800006D1CBAF10001AAF1010AF1DC65E10000CA
:1038100009280100303132333435363738396162A6
:10382000636465660000000030313233343536376A
:1038300038394142434445460000000000F058F941
:103840000544761C307800287FF4ECAD19B028468A
:10385000BDE8F08F620700D4062709F1070222F0C5
:10386000070CFCE80223E14603F000485FEA080C7D
:1038700002D00FF2702C0DE05FEA045C02D50FF26B
:10388000682C07E05FEAC47C02D00FF2602C01E0F4
:10389000AFF2700C4FF0FF3823F00043CDF850C06A
:1038A00065280CD006DC452809D046281DD04728BD
:1038B0003DD13DE0662818D067287ED138E0002150
:1038C000112F01DB112000E0781CCDE9000106A9D1
:1038D0000EA8FFF7DDFCDDE90F010E9A0391002130
:1038E000009207F1010A04914DE04FF0004000976B
:1038F000CDE9011006A90EA8FFF7CAFCDDE90F0209
:1039000003920E9B11990022DDF80CA00093049203
:1039100011B9791C00EB010AB7EB0A0004D4C0F11D
:10392000FF3007F1010A0490AAEB0700019044E080
:10393000012F00DA01270021112F01DD112000E005
:103940003846CDE9000106A90EA8FFF7A1FCDDE984
:103950000F010E9A0391002104910092BA462107AB
:103960000CD40399514500DA8A46BAF1010F05DDFE
:10397000009AAAF10101515C302908D0B84202DA5C
:1039800010F1040F06DA0121CDE9011015E0AAF1CA
:103990000101E9E7002805DC049901440491AAEB40
:1039A000000102E0411C514500DD8A460499401A9D
:1039B000401C01904FF000400290200704D4019871
:1039C000504501DBCDF8048000208DF84F000298AF
:1039D0000DF14F07B0F1004F25D02B200E9002982B
:1039E0004FF0020800280CDA404202902D200E9081
:1039F00007E00A210298FCF72CFE3031029007F80C
:103A0000011DB8F10001A8F10108F2DC02980028BC
:103A1000EFD1791E0E980870307800F0200040F049
:103A2000450007F8020D12A8C01B00F10708149802
:103A3000007800B1012000EB0A01019801EBE07170
:103A400005984144401A401E0590E00306D45B46A9
:103A50002146179A059800F05DF8054414980078FF
:103A600018B15A46179990476D1CE00324D55B4660
:103A70002146179A059800F04DF805441CE004987B
:103A8000002807DBDDE90301884203DD0098405C84
:103A9000179901E0179930205A469047049805F18C
:103AA0000105401C04900198401E019004D12E2075
:103AB0005A46179990476D1CBAF10001AAF1010A04
:103AC000DDDC05E017F8010B5A46179990476D1C8D
:103AD000B8F10001A8F10108F4DC5B462146179A11
:103AE0000598ABE62D0000002B0000002000000030
:103AF0002DE9F041044600251E461746880404D4EB
:103B000005E039462020B0476D1C641EF9D52846D3
:103B1000BDE8F0812DE9F041044600251E4690469F
:103B2000C80301D5302700E02027880404D505E02C
:103B300041463846B0476D1C641EF9D52846BDE89D
:103B4000F0810A68531C0B60107070472DE9F84F24
:103B500004460D4621F0004000917349814211DC7A
:103B60007249884201DC06D12CB120462946BDE8C5
:103B7000F84FFFF76ABB6E48002DCCBF6D496E4908
:103B8000BDE8F88F6D49814211DD6D498142D8BF92
:103B90004FF0FF366DDD20462946FFF7EDFA042889
:103BA00008BFFFF757FB20462946BDE8F88F654957
:103BB000654F25F00045814233DD6449814219DDBE
:103BC000002632464FF0804320462946FCF73AFB58
:103BD00080468A46012220462946FCF7A7FE00229D
:103BE0003B46FCF7D0FB42465346FCF744FC0446F8
:103BF0000D463EE001260022BA463B4620462946B5
:103C0000FCF720FB80460F460022534620462946FB
:103C1000FCF7B9FB42463B46FCF72DFC04460D463B
:103C200027E04B4981421BDDDFF828A10226002254
:103C3000534620462946FCF7ACFB00223B46FCF7E6
:103C400001FB80460F460022534620462946FCF7DA
:103C50009AFB42463B46FCF70EFC04460D4608E044
:103C6000032622462B4600203B49FCF704FC044671
:103C70000D4622462B4610461946FCF78AFB8B461A
:103C8000824602460B46FCF784FB07460246334851
:103C900088460B4606217844FFF782FA52465B4677
:103CA000FCF777FB82462E488B463A464346052171
:103CB0007844FFF775FA3A464346FCF76AFB02463A
:103CC0000B46002E504659460CDAFCF7BBFA22464A
:103CD0002B46FCF75EFB01B022462B46BDE8F04FB9
:103CE000FCF754BBFCF7AEFA22462B46FCF751FB1F
:103CF0001C4A7A4402EBC603D3E90023FCF743FBDA
:103D000022462B46FCF73FFB174A7A4402EBC603D8
:103D1000D3E90023FCF73AFB009A002AB8BF81F0F0
:103D20000041BDE8F88F0000000010440000F07F63
:103D3000182D4454FB21F93FFB21F9BF0000DC3F63
:103D40000000203E0000F33F0000F03F0000E63F8F
:103D5000008003400000F83F0000F0BFFE020000BA
:103D6000BC0200005A020000220200002DE9F04DC2
:103D70009446CCF1000423F000464CEA0404594F69
:103D800046EAD4749A46884621F00042BC4206D8DE
:103D9000454240EA050442EAD474BC4204D9BDE875
:103DA000F04D6246FFF754BAAAF14055A5F17F6580
:103DB00055EA0C040BD0022404EAAA744A4DDFF839
:103DC0002CE144EAD87452EA000B04D00CE0BDE8C0
:103DD000F04DFFF7BBBE002C14BF012CBDE8F08DE9
:103DE000022C30D0032C32D056EA0C0B0AD0BE4243
:103DF00020D1BA4209D126F0804622F080423346D3
:103E0000114617E000291ADB25E0DFF8E4B0FB4497
:103E1000002C04BFDBE90001BDE8F08D012C02BFDE
:103E2000DBE9000181F00041BDE8F08D022C0AD0F1
:103E3000032C0CD0BA4212D1B8F1000F0BDA2A4889
:103E40002C49BDE8F08D28462B49BDE8F08D284669
:103E50007146BDE8F08D24482849BDE8F08D921BDD
:103E600012153C2AC4BF204F244E10DCBAF1000FBB
:103E7000BEBF12F13C0F00273E4608DB6246FCF74E
:103E8000FAFA21F00041FFF761FE07460E4694B1B1
:103E9000012C08BF86F000460DD0194A194B022CA0
:103EA0003846314615D0FCF76EFA2A46BDE8F04D8B
:103EB000114BFCF768BA0022134638463146FCF72E
:103EC000EDFC04BF0220FFF7DDF938463146BDE8BE
:103ED000F08DFCF758FA2A46BDE8F04D064BFCF78A
:103EE00055BA00000000F07F182D4454FB2109C092
:103EF000B6010000FB21F9BFFB210940FB21F93F7E
:103F0000075C143326A6A13C10B5044601E0FEF779
:103F1000F3FE14F8010B04490028F8D1BDE8104065
:103F20000A20FEF7E9BE00000000002000000000AB
:103F30004FBB610567ACDD3F182D4454FB21E93FC1
:103F40009BF681D20B73EF3F182D4454FB21F93FB0
:103F5000E2652F227F2B7A3C075C143326A6813C36
:103F6000BDCBF07A8807703C075C143326A6913CE1
:103F7000C4EB98999999C9BF711623FEC671BCBF4D
:103F80006D9A74AFF2B0B3BF9AFDDE522DDEADBFB5
:103F90002F6C6A2C44B4A2BF0D5555555555D53FCD
:103FA000FF8300922449C23F6E204CC5CD45B73FE8
:103FB000513DD0A0660DB13FEB0D76244B7BA93F60
:103FC00011DA22E33AAD903F00000000000000004B
:103FD00002040608000000000102030401020304B9
:103FE0000607080903037C828244EFBC8C000000B2
:103FF00000000000000000000000000000000000C1
:104000005838000000000000000000000000E380BD
:10401000820000000000000000000000000000001E
:104020000000000018242418000000000000000018
:104030000000E4BDA000008060F8074020180F08D1
:10404000C80808281800010000FF00100C03408079
:104050007F0001061800E5A5BD001010F01F10F04C
:1040600000808282E2928A868000402215081661D2
:10407000000040807F0000000000E4B8960020208F
:1040800020FE2020FF202020FF20202020000000F4
:10409000007F404047444444474040400000E7958B
:1040A0008C00000000FE929292FE929292FE00001E
:1040B000000008080484621E010001FE02040408D6
:1040C0000800E593880000FC0404FC2050484443A9
:1040D000444850202000000F04040F00FE424242DA
:1040E0004242FE000000E596BD0000FC0404FC0016
:1040F000905234107F1034529000000F04040F824D
:10410000825A562322524E820200E5B18F000000EF
:10411000FE1292B2D2929292D2B29E000000403031
:104120000F0484641F040404FF0404040000E5B9C0
:104130009500000202FAAAAFAAAAAAAFAAFA02023E
:10414000000012120A7E0A0B0AFE0A2A4A3E0A12CE
:104150001200E9AB980004040404F4949596949436
:10416000F4040404040000FE02027A4A4A4A4A4A5D
:104170007A0282FE0000E59DA400202020FF20207E
:1041800000F88888FF8888F800001030100F0808B1
:10419000001F0808FF08081F0000E782B8008070B1
:1041A00000FF1048300FF888888888080800806071
:1041B000180708300000FF08080808080000E5BCE0
:1041C000B90002E222223E0000F94A4CF84C4AF9BA
:1041D0000000004382423E0010131212FF1212131D
:1041E0001000E5988000FC0404FC00E424ACB5E673
:1041F000B4AC24E400000F04040F00FF001E1213EF
:10420000125E807F0000E58DB100002010E82427B9
:10421000A4A4A4A4B4AC202000008040300F00006F
:104220003F404044484740700000E999A90000FE23
:10423000225A864020504C434C502040400000FF02
:10424000040807404458414E605847404000000071
:104250000000FF010101310909090989710101010A
:1042600001FFFF80808080808096818080808080B8
:1042700080FF0000000000000000002F0000000090
:104280000700070000147F147F1400242A7F2A12DD
:1042900000231308646200364955225000000007CD
:1042A000000000001C224100000041221C000014FC
:1042B000083E08140008083E0808000000A060003E
:1042C00000080808080800006060000000201008CE
:1042D0000402003E5149453E0000427F400000423A
:1042E00061514946002141454B31001814127F109D
:1042F000002745454539003C4A49493000017109CC
:10430000050300364949493600064949291E00007F
:104310003636000000005636000000081422410026
:104320000014141414140000412214080002015156
:104330000906003E4955592E007C1211127C007F5F
:1043400049494936003E41414122007F4141221CFA
:10435000007F49494941007F09090901003E41495F
:10436000497A007F0808087F0000417F4100002053
:1043700040413F01007F08142241007F40404040FF
:10438000007F020C027F007F0408107F003E414145
:10439000413E007F09090906003E4151215E007F30
:1043A000091929460046494949310001017F0101A7
:1043B000003F4040403F001F2040201F003F40384A
:1043C000403F006314081463000708700807006189
:1043D0005149454300007F4141000002040810207C
:1043E000000041417F0000040201020400404040FF
:1043F0004040000001020400002054545478007F23
:104400004844443800384444442000384444487FF9
:1044100000385454541800087E0901020018A4A45E
:10442000A47C007F080404780000447D4000004024
:1044300080847D00007F102844000000417F400000
:10444000007C04180478007C080404780038444494
:10445000443800FC242424180018242418FC007C70
:104460000804040800485454542000043F444020E9
:10447000003C4040207C001C2040201C003C403080
:10448000403C004428102844001CA0A0A07C00440C
:1044900064544C440000087F41000000007F00008D
:1044A0000000417F08000008040810080000000018
:1044B000000000000000000000000000000000F804
:1044C00000000000000000333000000000160E0065
:1044D000160E0000000000000000000040C0784000
:1044E000C0784000043F04043F040400007088FCCE
:1044F00008300000001820FF211E0000F008F00026
:10450000E018000000211C031E211E0000F0088896
:10451000700000001E21232419272110000000161E
:104520000E0000000000000000000000000000E09D
:1045300018040200000000071820400000020418C0
:10454000E00000000040201807000000404080F01C
:10455000804040000202010F01020200000000F052
:10456000000000000101011F010101000000000026
:104570000000000000B0700000000000000000001B
:104580000000000000010101010101010000000024
:1045900000000000003030000000000000000000BB
:1045A00080601804006018060100000000E0100898
:1045B0000810E000000F102020100F00001010F86D
:1045C000000000000020203F2020000000700808AC
:1045D000088870000030282422213000003008882C
:1045E000884830000018202020110E000000C02054
:1045F00010F8000000070424243F240000F8088875
:10460000880808000019212020110E0000E0108801
:1046100088180000000F112020110E000038080833
:10462000C83808000000003F000000000070880843
:1046300008887000001C222121221C0000E01008C4
:104640000810E0000000312222110F00000000C01D
:10465000C00000000000003030000000000000C07A
:10466000C0000000000080B070000000000080402A
:1046700020100800000102040810200040404040C3
:104680004040400004040404040404000008102016
:10469000408000000020100804020100007048085B
:1046A0000808F0000000003036010000C030C828C3
:1046B000E810E0000718272423140B000000C0387E
:1046C000E0000000203C23020227382008F88888F8
:1046D00088700000203F202020110E00C030080804
:1046E00008083800071820202010080008F80808DB
:1046F0000810E000203F202020100F0008F88888D4
:10470000E8081000203F20202320180008F888889F
:10471000E8081000203F200003000000C030080817
:104720000838000007182020221E020008F80800A0
:104730000008F808203F210101213F20000808F867
:10474000080800000020203F20200000000008088A
:10475000F8080800C08080807F00000008F888C04A
:1047600028180800203F20012638200008F80800FB
:1047700000000000203F20202020300008F8F80032
:10478000F8F80800203F003F003F200008F830C044
:104790000008F808203F200007183F00E010080834
:1047A0000810E0000F10202020100F0008F8080863
:1047B0000808F000203F210101010000E010080876
:1047C0000810E0000F18242438504F0008F888889B
:1047D00088887000203F2000030C3020007088087B
:1047E000080838000038202121221C00180808F889
:1047F000080818000000203F2000000008F808000A
:104800000008F808001F202020201F0008788800DA
:1048100000C83808000007380E010000F80800F84A
:104820000008F800033C0700073C030008186880F4
:104830008068180820302C03032C30200838C8006A
:10484000C83808000000203F2000000010080808B9
:10485000C83808002038262120201800000000FE5B
:10486000020202000000007F40404000000C30C007
:1048700000000000000000010638C0000002020233
:10488000FE000000004040407F00000000201008B3
:1048900004081020000000000000000000000000DC
:1048A00000000000808080808080808000020408FA
:1048B00000000000000000000000000000008080F8
:1048C000808000000019242222223F2008F8008066
:1048D00080000000003F112020110E000000008029
:1048E00080800000000E11202020110000000080B8
:1048F0008088F800000E112020103F2000008080EA
:1049000080800000001F222222221300008080F0FD
:10491000888888180020203F202000000000808028
:1049200080808000006B94949493600008F800806D
:1049300080800000203F210000203F2000809898C8
:10494000000000000020203F202000000000008028
:104950009898000000C08080807F000008F8000068
:1049600080808000203F24022D302000000808F8BD
:10497000000000000020203F202000008080808078
:1049800080808000203F20003F20003F008080008A
:104990008080000000203F2100203F200000808018
:1049A00080800000001F202020201F0080800080C9
:1049B0008000000080FFA12020110E000000008078
:1049C00080808000000E112020A0FF808080800069
:1049D0008080800020203F21200001000000808096
:1049E000808080000033242424241900008080E08B
:1049F000808000000000001F202000008080000058
:104A000000808000001F202020103F208080800038
:104A10000080808000010E30080601008080008048
:104A2000008080800F300C030C300F00008080006D
:104A3000808080000020312E0E3120008080800098
:104A40000080808080818E70180601000080808048
:104A5000808080000021302C2221300000000000E6
:104A6000807C020200000000003F40400000000087
:104A7000FF00000000000000FF0000000002027CB8
:104A8000800000000040403F0000000000804040E7
:104A900080000080000000000001010048656C6C8F
:104AA0006F20576F726421200D0A004144432D444A
:104AB0004D4121212121210D004441515F3400004D
:104AC000E04A0008000000201000000064320008E6
:104AD000F04A000810000020280800007432000886
:104AE00000000000000000000100000000000000C5
:04000005080000ED02
:00000001FF
