:020000040800F2
:100000000808002001010008090100080B01000890
:100010000D0100080F010008110100080000000098
:1000200000000000000000000000000013010008B4
:100030001501000800000000170100081901000860
:100040001B0100081B0100081B0100081B01000820
:100050001B0100081B01000831040008750400089A
:100060001B0100081B010008B10400081B01000867
:100070001B0100081B0100081B0100081B010008F0
:100080001B0100081B0100081B0100081B010008E0
:100090001B0100081B0100081B0100081B010008D0
:1000A0001B0100081B0100081B0100081B010008C0
:1000B0001B0100081B0100081B0100081B010008B0
:1000C0001B0100081B0100081B0100081B010008A0
:1000D0001B010008390D00081B0100081B01000866
:1000E0001B0100081B0100081B010008DFF80CD0F1
:1000F00000F038F8004800471911000808080020EF
:100100000648804706480047FEE7FEE7FEE7FEE7B1
:10011000FEE7FEE7FEE7FEE7FEE7FEE72D0C000840
:10012000ED000008D2B201E000F8012B491EFBD21D
:1001300070470022F6E710B513460A4604461946F2
:10014000FFF7F0FF204610BD10B5002200E0521C62
:10015000835C8C5CA34201D1002BF8D1D8B2E1B210
:10016000401A10BD1CB50948009009480190054689
:10017000009C06E0E06840F0010394E8070098471F
:100180001034AC42F6D3FFF7B5FF0000541300085B
:10019000641300088268002922F0010218BF0132AE
:1001A000826070478268002922F4807218BF02F5CD
:1001B00080728260704700008068C0F380007047E2
:1001C0008068C0F3C000704780B542684FF6FF6397
:1001D000CFF6F07302EA030C0B680A7943EA0C03CA
:1001E00043EA0222426082684FF2FD73CFF6F17358
:1001F0001A40D1E902C391F805E01A4342EA0C0221
:1002000042EA4E028260C26A097C22F4700201391D
:10021000C9B242EA0151C16280BD0000B0B501EB34
:10022000410C4FF0100E092988BFACF11E0C88BF9D
:100230004FF00C0E50F80E40072505FA0CF5AC43B4
:1002400003FA0CF323432C256FF0400440F80E30E2
:100250000D2A38BF302538BF6FF0220402EB82032D
:10026000072A3CBF34256FF004041A1943591F2490
:100270009440A343914019434151B0BD816841F07E
:1002800008018160704700008268002922F4A00202
:1002900018BF02F5A002826070470000816841F03B
:1002A000040181607047000042F20841C4F201017C
:1002B0000A68002822F4000218BF02F500020A6052
:1002C0007047000002684FF6FE7C42F001030029EF
:1002D00008BF02EA0C0303607047000002684FF693
:1002E000FE731A407F230421C4F20203C4F2020108
:1002F000026000229842026042608260C26016DCA6
:100300004322C4F2020290422CDC0822C4F2020210
:10031000904251D01C22C4F20202904256D03022A8
:10032000C4F2020290425ED14FF4706058E040F295
:100330002F42C4F20202904226DC8022C4F2020262
:1003400090423BD040F20842C4F2020290423FD0B9
:1003500040F21C42C4F20202904244D101F5806195
:10036000F0203DE04422C4F20202904236D05822EE
:10037000C4F2020290421CD06C22C4F202029042EB
:1003800031D14FF470002BE040F23042C4F202024F
:10039000904216D040F24442C4F2020290421BD076
:1003A00040F25842C4F20202904218BF704701F571
:1003B00080614FF4702013E00F2011E04FF0706067
:1003C0000EE001F580614FF4706009E0F02007E075
:1003D00001F580610F2003E001F580614FF470406A
:1003E0000A681043086070472DE9F047026847F635
:1003F000F073D1E9026A9A4301F11007B0CF01F11D
:100400001C0E3243D1E900899EE80A501A43224368
:100410002A433A43114341EA0C0141EA0E010160CB
:10042000C0F804A0C0F80880C0F80C90BDE8F087C0
:1004300070B50120012500F061F8002808BF70BDEB
:1004400048F2941645F24044C4F221260020C0F23E
:1004500089043060204600F025FE204600F022FE90
:10046000204600F01FFE01203560BDE8704000F01E
:100470003FB80000B0B5022000F040F8002808BFE7
:10048000B0BD48F2901545F24044C4F22125002049
:10049000C0F289042860204600F004FE204600F0E7
:1004A00001FE012102202960BDE8B04000F020B823
:1004B00010B5102000F022F8002808BF10BD48F247
:1004C0008C14C4F221240020206044F64030C0F295
:1004D0004C0000F0E7FD44F24020C0F20F0000F0B5
:1004E000E1FD012110202160BDE81040AFF3008044
:1004F00040F21441C4F201010860704740F200412B
:10050000C4F201010A6849690240084018BF01208D
:10051000002A18BF0122104070470000CA7802F07C
:100520000F0CD30644BF8B784CEA030C2DE9F0473F
:1005300009880B0624D086465EF8143B00F11008AB
:1005400000254FF0010A4FF00F09002406E000BF1C
:1005500037600134082C05F1040510D00AFA04F7BD
:100560000F42F6D009FA05F6B3430CFA05F6334309
:10057000282A7646ECD0482AEBD14646E8E70360C5
:10058000B1F5807F38BFBDE8F087436800F1100EF9
:1005900000F1140A00254FF480794FF00F0800276E
:1005A00006E000BF26600137082F05F1040510D0D2
:1005B00009FA07F60E42F6D008FA05F4A3430CFA3E
:1005C00005F42343282A5446ECD0482AEBD174463C
:1005D000E8E74360BDE8F087B0B540F2040CC4F230
:1005E000010C0CF118031A46B0F1FF3FC4BF0422FE
:1005F000C4F20102146800F44012B2F5401F1FFA61
:1006000080FE08D1DCF8005024F0706225F07064A0
:10061000CCF8004011E0C20206D46FF00F0202EAEB
:1006200050420EFA02F204E0C0F30342032505FA39
:1006300002F224EA020242F070626FF00F0404EA50
:10064000504400290EFA04F518BF2A43B0F1FF3FC9
:10065000C8BF63461A60B0BD016170471023002A0D
:1006600008BF1423C150704710B5C17800294EF25D
:100670000011CEF200011AD04EF60C52CEF200025A
:100680001268072323EA12220F23C2F1040C23FA73
:1006900002F24378847890F800E003FA0CF32240E9
:1006A0001A43120101EB0E0383F8002300E08031AE
:1006B0000078012300F01F0203FA02F2C0F3421097
:1006C00041F8202010BD000080B540F20000C2F2C9
:1006D00000004FF48061FFF72CFD80BD70B540F63F
:1006E00000440546C4F20104002600BF05FA06F0E6
:1006F000C0B2C20920464FF40071FFF7AFFF204699
:100700004FF480710122FFF7A9FF20464FF480715A
:100710000022FFF7A3FF0136082EE7D120464FF451
:1007200080710122FFF79AFF20464FF4807100226A
:10073000BDE87040FFF792BFB0B582B0082001213C
:1007400000F022FA40F2001040F60044C1F20340EB
:10075000C4F2010401AD019020462946FFF7DEFEF8
:100760004FF40070ADF8040020462946FFF7D6FE8E
:1007700020464FF480710122FFF770FF20464FF4AE
:1007800000710122FFF76AFFAE2000F04BF9D5207F
:1007900000F048F9802000F045F9A82000F042F967
:1007A0003F2000F03FF9D32000F03CF9002000F09A
:1007B00039F9402000F036F9A12000F033F9C820C3
:1007C00000F030F9DA2000F02DF9122000F02AF9BB
:1007D000812000F027F9CF2000F024F9D92000F083
:1007E00021F9F12000F01EF9DB2000F01BF9302088
:1007F00000F018F9A42000F015F9A62000F012F975
:100800008D2000F00FF9142000F00CF9AF2000F05B
:1008100009F902B0B0BD00002DE9F04F83B001919D
:100820001178934600220029029244D041F2A0158B
:10083000A0F110094FF0000A02AEC0F60005002436
:10084000002006E0013001345FFA84FA1BF80A1038
:1008500089B302283154F5D32878A8B14FF00008A5
:100860002F4600BF38463146FFF76EFC68B108F1ED
:1008700001085FFA88F000EBC00015F8201005EBC6
:1008800080070029EED100E02F464AF6AB210AF19D
:100890000100CAF6AA21A0FB010101F01E0009EB2C
:1008A000C00001990437C0B210221023009700F055
:1008B00005F80020C7E703B0BDE8F08F2DE9F04F41
:1008C00082B047B2002F01D43F2902D902B0BDE85F
:1008D000F08F5F18402F1F46019388BFC1F140077A
:1008E000FFB29FB307EB010817186FF07F06802F48
:1008F000174688BF371AFEB206EB000B4FEA0769AE
:1009000001230D468A4605E00AF1010A5FFA8AF5DD
:10091000A8451BD9B9F1000FF6D00AF0070403FA75
:1009200004F440F200076FEA040EEC08C2F200077C
:1009300007EBC4150646044615F806C001340CEA58
:100940000E07AF55E6B2B345F6D8DDE7019B01F0DF
:10095000070C013B03EB5373DB100193CB08CCF185
:10096000080A00244FF0000B009306E00BF1010B86
:1009700001995FFA8BF4A142A8DB002AF6D0009E11
:100980005FFA8BF340F20001F718C2F2000101EBAD
:10099000C7190B9904EB060802FB03130025064652
:1009A00007E000BF0135E9B20136914203F10103CE
:1009B000DCD27F2EDAD8B8F1070F3FF687AF19786F
:1009C00019F806E001FA0CF141EA0E01B8F1070F3F
:1009D00009F80610E6D0197809EB060494F880703F
:1009E00021FA0AF1394384F88010DBE7B0B540F210
:1009F00000040025C2F2000445F0B000C0B200F0CF
:100A000011F8102000F00EF8002000F00BF820463E
:100A1000802100F061F80135082D04F18004EBD14C
:100A2000B0BD000070B540F60044C4F201040546B4
:100A300020464FF400710122FFF710FE20464FF4CC
:100A400080710122FFF70AFE20464FF40071002258
:100A5000FFF704FE20464FF480710022FFF7FEFDF1
:100A60007820FFF73BFE082620464FF40071002255
:100A7000FFF7F4FD20464FF480710122FFF7EEFDF1
:100A800020464FF480710022FFF7E8FD013EEBD1D4
:100A900020464FF480710122FFF7E0FD20464FF41D
:100AA00080710022FFF7DAFD2846FFF717FE204687
:100AB0004FF400710022FFF7D1FD20464FF4807102
:100AC0000122FFF7CBFD20464FF400710122BDE863
:100AD0007040FFF7C3BD000070B540F60044C4F29B
:100AE00001040D46064620464FF400710122FFF72F
:100AF000B5FD20464FF480710122FFF7AFFD20467F
:100B00004FF400710022FFF7A9FD20464FF48071D9
:100B10000022FFF7A3FD7820FFF7E0FD4020FFF75C
:100B2000DDFD3DB1013E00BF16F8010FFFF7D6FD18
:100B3000013DF9D120464FF400710022FFF78EFDF0
:100B400020464FF480710122FFF788FD20464FF4C4
:100B500000710122BDE87040FFF780BD41F2040141
:100B6000C4F202010A6822F4404210430860704750
:100B7000002941F21401C4F202010A680CBF22EA02
:100B80000000104308607047002941F21801C4F2C8
:100B900002010A680CBF22EA000010430860704797
:100BA00010B541F20404C4F20204226802F00C02FF
:100BB000082A41F20022C0F27A0212D12368D4F846
:100BC00000C0C3F3834E5FEACC330EF1020C02D5B2
:100BD00023689B0303D540F60012C0F23D020CFBD4
:100BE00002F20260226841F29013C2F30312C0F6CF
:100BF00000039A5C0168D14041602268C2F302227E
:100C00009A5C21FA02F282602268C2F3C2229A5CE4
:100C100041F28C13D140C1602268C0F60003C2F3D8
:100C200081329A5CB1FBF2F1016110BD82B041F2F8
:100C30000400C4F2020050F8041C002241F001013B
:100C400040F8041C0168CFF6FF021140016050F823
:100C5000041C4FF6FF72CFF6F662114040F8041CF8
:100C600050F8041C21F4802140F8041C016821F490
:100C7000FE0101604FF41F014160002101910091CC
:100C800050F8041C41F4803140F8041C50F8041C56
:100C900001F400310091019901310191009919B9D4
:100CA0000199B1F5A06FF1D150F8041CC1F3404196
:100CB00000910099012936D142F20001C4F20201EB
:100CC0000A6842F010020A600A6822F007020A600D
:100CD0000A6842F002020A6001680160016801606E
:100CE000016841F480610160016821F47C110160B8
:100CF000016841F4E811016050F8041C41F0807172
:100D000040F8041C50F8041C8901FBD5016821F04F
:100D100003010160016841F002010160016801F016
:100D20000C010829FAD14EF60850CEF200004FF01F
:100D30000061016002B0704710B543F60004C4F2D0
:100D40000104204640F2255100F040F8002808BF79
:100D500010BD204600F0C8F8422815D003280AD05C
:100D6000012819D148F28C10C4F22120816881F049
:100D70000101816010E048F28C10C4F2212001686A
:100D800081F00101016007E048F28C10C4F22120DB
:100D9000416881F001014160204640F22551BDE8E3
:100DA000104000F001B80000090A012202FA01F126
:100DB000C9430180704700008289002918BF0121C2
:100DC00022F4005242EA413181817047C1F342125C
:100DD0001423022A08BF1023012A08BF0C2301F0A4
:100DE0001F02C35A090A4FF0010C00880CFA01F1E6
:100DF000084023FA02F118BF0120084070470000A4
:100E0000C1F3421301F01F0C1421022B08BF102163
:100E1000012B4FF0010308BF0C21002A03FA0CF24A
:100E200043580CBF23EA02021A43425070470000A5
:100E300070B586B00446008A0D46C98820F440503B
:100E400008432082A0894EF6F3110840A9882A8918
:100E50006B89084310431843A081A08AA98920F414
:100E60004070084301AEA0823046FFF799FE43F67A
:100E7000000106F10800C4F201018C4208BF06F12E
:100E80000C0000681922B4F90C1050432A680123A1
:100E9000B1F1FF3FC8BF022302FA03F1B0FBF1F04A
:100EA00048F21F51C5F2EB11A0FB01235A096FF064
:100EB000630302FB0300B4F90C300326B3F1FF3FD8
:100EC000C8BF042600FA06F000F13200A0FB0101C1
:100ED0004FF00700C8BF0F2000EA511040EA02108F
:100EE000208106B070BD000080886FF35F207047DE
:100EF00070B586B005200121FFF746FE4FF4804013
:100F00000121FFF741FE43F600044FF48060C4F274
:100F10000104ADF804000420A4F5405501AE8DF89D
:100F2000070028463146FFF7F9FA40F20020C1F6E3
:100F30000300019028463146FFF7F0FA4FF4E13004
:100F4000029000204FF4402103900491ADF814006A
:100F500002A92046FFF76CFF2520C0F20010009088
:100F60006846FFF781FB204640F225510122FFF73A
:100F700047FF20460121FFF71FFF06B070BD0000AC
:100F80002DE9F04192B042F200444FF40040C4F227
:100F90000104FFF7E3FD40F2046001214FF0010876
:100FA000FFF7F2FD01200121FFF7E2FD0E20ADF871
:100FB00044000027A4F5E05011A98DF84770FFF711
:100FC000ADFA0825C4F202052846FFF787F942F278
:100FD0004C40C4F20100019040F20040C2F2000017
:100FE000CDE90207802006904FF4807007904FF4FF
:100FF00080600890202009904FF400500426CDE92D
:101000000A0701A92846CDE90467FFF7EDF928464C
:101010000121FFF757F94FF46020CDE90E070CA925
:1010200020460C97ADF834808DF84060FFF7CCF87F
:101030002046112101220723FFF7F0F82046012165
:1010400002220523FFF7EAF82046022104220523A5
:10105000FFF7E4F82046102103220723FFF7DEF80C
:1010600020460121FFF79EF80120FFF71DF92046D9
:101070000121FFF78FF82046FFF700F92046FFF720
:101080009FF80028FAD12046FFF708F92046FFF71D
:1010900093F80028FAD120460121FFF7F5F812B0A5
:1010A000BDE8F0817047000070B582B010200121CA
:1010B0000126FFF769FD42F2000041F20004C1F28F
:1010C0000300C4F2010401AD019020462946FFF758
:1010D00025FA20464FF40051FFF7BEFA09200121FE
:1010E000FFF752FD40F20020C0F230000121FFF76F
:1010F00073FA3820C1F203000190A4F580602946FC
:10110000FFF70CFA48F28C10C4F22120866046608A
:10111000066002B070BD0000FFF70EFBFFF7D4FAC7
:10112000FFF7C2FFFFF72CFFFFF7E2FE41F22C347E
:10113000C0F60004002000212246FFF76DFB41F2BB
:101140004235C0F60005002014212A46FFF764FB53
:10115000FFF74CFC002000212246FFF75DFB00203A
:1011600014212A46FFF758FBFFF740FCF2E702E0A4
:1011700008C8121F08C1002AFAD170477047002022
:1011800001E001C1121F002AFBD1704702040608CA
:10119000000000000102030401020304060708091D
:1011A000EFBC8C0000000000000000000000000008
:1011B000000000000000583800000000000000009F
:1011C00000000000E380820000000000000000003A
:1011D0000000000000000000000018242418000097
:1011E0000000000000000000E4BDA000008060F8E6
:1011F000074020180F08C80808281800010000FF41
:1012000000100C0340807F0001061800E5A5BD001A
:101210001010F01F10F000808282E2928A86800017
:10122000402215081661000040807F000000000089
:10123000E4B89600202020FE2020FF202020FF2060
:10124000202020000000007F4040474444444740A5
:1012500040400000E7958C00000000FE929292FE54
:10126000929292FE0000000008080484621E0100B1
:1012700001FE020404080800E593880000FC040451
:10128000FC2050484443444850202000000F0404F0
:101290000F00FE4242424242FE000000E596BD00C1
:1012A00000FC0404FC00905234107F103452900073
:1012B000000F04040F82825A562322524E820200EB
:1012C000E5B18F000000FE1292B2D2929292D2B299
:1012D0009E00000040300F0484641F040404FF04D7
:1012E00004040000E5B99500000202FAAAAFAAAA18
:1012F000AAAFAAFA0202000012120A7E0A0B0AFE24
:101300000A2A4A3E0A12120000000000FF010101F1
:101310003109090909897101010101FFFF808080FC
:101320008080809681808080808080FFE59388E542
:1013300096BDEFBC8CE4B896E7958CE5B18FE5B926
:101340009500E59388EFBC8CEFBC8CEFBC8CE5A5D9
:10135000BD00000064130008000000200808000021
:041360007E110008F2
:04000005080000ED02
:00000001FF
