:020000040800F2
:100000006006002099010008A1010008A301000872
:10001000A5010008A7010008A901000800000000D0
:10002000000000000000000000000000AB0100081C
:10003000AD01000800000000AF010008B101000898
:10004000B3010008B3010008B3010008B3010008C0
:10005000B3010008B301000855020008B30100080D
:10006000B3010008B301000879020008B3010008D9
:10007000B3010008B3010008B3010008B301000890
:10008000B3010008B3010008B3010008B301000880
:10009000B3010008B3010008B3010008B301000870
:1000A000B3010008B3010008B3010008B301000860
:1000B000B3010008B3010008B3010008B301000850
:1000C000B3010008B3010008B3010008B301000840
:1000D000B3010008B3010008B3010008B301000830
:1000E000B3010008B3010008B301000800F002F8F2
:1000F00000F042F814A696E8000CB244B344DA4586
:1001000001D100F039F8BAE80F000FA696E83000E8
:10011000A5EB040504EB0607AAEB0704A7F101070A
:100120004FEA15154FEA3414A4F10104AC4201D38F
:1001300000F022F813F0010F18BFFB1A43F001037F
:1001400000F001F8DBE718474C0900005C090000EB
:10015000704700000023002400250026103A28BF25
:1001600078C1FBD8520728BF30C148BF0B60704729
:100170001FB51FBD10B510BD00F031F81146FFF7D7
:10018000F7FF00F07DFC00F04FF803B4FFF7F2FF3B
:1001900003BC00F057F800000948804709480047B1
:1001A000FEE7FEE7FEE7FEE7FEE7FEE7FEE7FEE727
:1001B000FEE7FEE704480549054A064B7047000084
:1001C0007D090008ED0000086000002060060020A6
:1001D000600200206002002070477047704775463B
:1001E00000F02CF8AE4605006946534620F00700A3
:1001F000854618B020B5FFF7DDFFBDE820404FF081
:1002000000064FF000074FF000084FF0000BAC461F
:10021000ACE8C009ACE8C009ACE8C009ACE8C0096A
:1002200021F007018D46704710B50446AFF30080FA
:100230002046BDE81040FFF7A8BF00000048704707
:100240000000002001491820ABBEFEE72600020096
:100250007047000080B5012000F02CF858B1FFE78E
:1002600048F29411C4F221210868C04308600120BB
:1002700000F016F8FFE780BD80B5102000F01AF8F6
:1002800060B1FFE748F28C11C4F22121086880F0C8
:1002900001000860102000F003F8FFE780BD0000B7
:1002A00081B00090009840F21441C4F2010108604E
:1002B00001B0704783B0029000208DF807000090D5
:1002C00040F20040C4F2010000680299084000902A
:1002D00040F21440C4F2010000680299084207D0BD
:1002E000FFE7009820B1FFE701208DF8070003E049
:1002F00000208DF80700FFE79DF8070003B0704766
:1003000082B001900020009040F20040C4F2010051
:10031000009001988079002859D0FFE70198026881
:1003200040F20041C4F2010108689043086001985E
:10033000026840F20441C4F2010108689043086079
:10034000019801790098084400900198026800998A
:100350000868104308600198026840F20841C4F23E
:1003600001010868904308600198026840F20C415E
:10037000C4F2010108689043086001984079102890
:1003800013D1FFE70198026840F20841C4F201016D
:100390000868104308600198026840F20C41C4F2FA
:1003A000010108681043086010E040F20040C4F208
:1003B000010000900198417900980844009001984C
:1003C00002680099086810430860FFE70BE0019895
:1003D0000179009808440090019802680099086823
:1003E00090430860FFE702B07047000080B588B016
:1003F00005200121029100F00FFA11200090ADF8C4
:10040000140048208DF8170040F60000C4F20100E7
:1004100005A900F061F800210191084600F032F8CA
:100420000198042100F02EF8009A01990298069292
:100430008DF81C100C218DF81D108DF81E0006A8DB
:10044000FFF75EFF0199029806228DF810208DF8C3
:1004500011108DF812108DF8130004A8039000F00D
:1004600087F9019A029903980A238DF810308DF8C4
:1004700011208DF812208DF8131000F079F908B0D2
:1004800080BD000082B08DF807008DF806100020B6
:1004900000909DF8060000F0030081000F208840C6
:1004A0000090009B9DF8060000F0FC010822C4F2B9
:1004B00001028858984388509DF807109DF806005F
:1004C00000F003039B0001FA03F300F0FC018858DD
:1004D0001843885002B0704788B0079006910020FA
:1004E0000590049003900290019000900698C078C7
:1004F00000F00F0005900698C078C006002806D5C9
:10050000FFE706988178059808430590FFE706986D
:10051000007800284BD0FFE7079800680190002082
:100520000390FFE7039807283DD8FFE703990120D0
:100530008840029006980088029908400490049828
:10054000029988422AD1FFE703988000029002991D
:100550000F208840009000990198884301900598E9
:10056000029900FA01F10198084301900698C078B9
:10057000282806D1FFE703990120884007994861A0
:100580000BE00698C078482806D1FFE703990120C0
:10059000884007990861FFE7FFE7FFE7FFE7039857
:1005A00001300390BEE7019807990860FFE70698BD
:1005B0000088B0F5807F50DBFFE707984068019026
:1005C00000200390FFE70398072842D8FFE703982D
:1005D00000F10801012088400290069800880299E5
:1005E000084004900498029988422DD1FFE70398AF
:1005F0008000029002990F20884000900099019895
:10060000884301900598029900FA01F10198084386
:1006100001900698C078282808D1FFE7039800F1D8
:1006200008010120884007994861FFE70698C078D3
:10063000482808D1FFE7039800F10801012088400D
:1006400007990861FFE7FFE7FFE703980130039090
:10065000B9E7019807994860FFE708B070470000C4
:1006600086B005908DF81310002003900290019041
:1006700000909DF817000006002806D5FFE71C2013
:10068000C4F201000068019005E00420C4F20100FA
:1006900000680190FFE70598C0F303400090BDF8A3
:1006A00014000390059800F44010B0F5401F0CD1E1
:1006B000FFE7019820F0706001900421C4F201016D
:1006C000086820F07060086023E09DF81600C006FE
:1006D00000280DD5FFE70099032088400290029979
:1006E000019888430190019840F0706001900FE0FC
:1006F0000398059A6FF00F0101EA524100FA01F1E7
:10070000019888430190019840F070600190FFE7E4
:10071000FFE79DF8130060B1FFE70398059A6FF0BB
:100720000F0101EA524100FA01F1019808430190DA
:10073000FFE79DF817000006002806D5FFE701989F
:100740001C21C4F20101086005E001980421C4F2F3
:1007500001010860FFE706B07047000082B0019019
:10076000ADF80210BDF802000199086102B07047AF
:1007700084B003900020029001900F200090039815
:10078000C078B8B3FFE74EF60C50CEF20000006818
:10079000C043C0F3022002900298C0F1040001900F
:1007A00000980299C84000900398407801998840C9
:1007B00002900398807800990140029808430290C3
:1007C0000298000102900298039909784EF20042C3
:1007D000CEF2000288540398027802F01F01012033
:1007E00088401C2101EAD2014EF20012CEF2000232
:1007F00088500EE00398027802F01F010120884023
:100800001C2101EAD2014EF28012CEF20002885081
:10081000FFE704B07047000082B001908DF803102C
:100820009DF8030048B1FFE7019A41F21801C4F2B4
:10083000020108681043086008E0019A41F21801BB
:10084000C4F20201086890430860FFE702B07047F5
:1008500080B500F001F880BD84B0002003900290C4
:1008600041F20001C4F20201086840F480300860DF
:10087000FFE741F20000C4F20200006800F400301B
:100880000290039801300390FFE702990020019045
:1008900039B9FFE70398B0F5A06018BF01200190B7
:1008A000FFE70198C0070028E3D1FFE741F200000D
:1008B000C4F2020000688003002803D5FFE701208E
:1008C000029002E000200290FFE70298012851D137
:1008D000FFE742F20001C4F20201086840F0100094
:1008E0000860086820F007000860086840F002000F
:1008F000086041F20401C4F2020100910868086036
:1009000008680860086840F480600860086820F49F
:100910007C100860086840F4E810086041F20001AB
:10092000C4F20201086840F080700860FFE741F2FD
:100930000000C4F2020000688001002801D4FFE733
:10094000F5E741F20401C4F20201086820F0030057
:100950000860086840F002000860FFE741F2040008
:10096000C4F20200006800F00C00082801D0FFE784
:10097000F4E700E0FFE704B07047000080B541F203
:100980000002C4F20202106840F00100106041F25F
:100990000401C4F2020108680023CFF6FF031840E7
:1009A000086010684FF6FF73CFF6F66318401060CA
:1009B000106820F480201060086820F4FE000860B1
:1009C00041F20801C4F202014FF41F000860FFF772
:1009D0003FFF4EF60851CEF200014FF00060086074
:1009E00080BD000080B588B01020049001210691E0
:1009F000FFF712FF04984FF400510291ADF81C105C
:100A0000032103918DF81E108DF81F0041F20000A4
:100A1000C4F20100019007A90591FFF75DFD01985F
:100A20000299FFF79BFE06990920FFF7F5FE06994C
:100A300040F20020C0F23000FFF712FE039A049843
:100A400005993823ADF81C308DF81E208DF81F0055
:100A500040F60040C4F20100FFF73EFD069848F260
:100A60009411C4F22121086048F29011C4F22121AE
:100A7000086048F28C11C4F22121086008B080BDE2
:100A800080B582B000200190FFF7ACFFFFF7AEFC0D
:100A9000FFE7FEE7A40A000800000020600600004F
:040AA00054010008F5
:04000005080000ED02
:00000001FF
